{
  "_format": "hh-sol-artifact-1",
  "contractName": "MyToken",
  "sourceName": "contracts/MyToken.sol",
  "abi": [
    {
      "inputs": [],
      "stateMutability": "nonpayable",
      "type": "constructor"
    },
    {
      "anonymous": false,
      "inputs": [
        {
          "indexed": true,
          "internalType": "address",
          "name": "owner",
          "type": "address"
        },
        {
          "indexed": true,
          "internalType": "address",
          "name": "approved",
          "type": "address"
        },
        {
          "indexed": true,
          "internalType": "uint256",
          "name": "tokenId",
          "type": "uint256"
        }
      ],
      "name": "Approval",
      "type": "event"
    },
    {
      "anonymous": false,
      "inputs": [
        {
          "indexed": true,
          "internalType": "address",
          "name": "owner",
          "type": "address"
        },
        {
          "indexed": true,
          "internalType": "address",
          "name": "operator",
          "type": "address"
        },
        {
          "indexed": false,
          "internalType": "bool",
          "name": "approved",
          "type": "bool"
        }
      ],
      "name": "ApprovalForAll",
      "type": "event"
    },
    {
      "anonymous": false,
      "inputs": [
        {
          "indexed": true,
          "internalType": "address",
          "name": "previousOwner",
          "type": "address"
        },
        {
          "indexed": true,
          "internalType": "address",
          "name": "newOwner",
          "type": "address"
        }
      ],
      "name": "OwnershipTransferred",
      "type": "event"
    },
    {
      "anonymous": false,
      "inputs": [
        {
          "indexed": true,
          "internalType": "address",
          "name": "from",
          "type": "address"
        },
        {
          "indexed": true,
          "internalType": "address",
          "name": "to",
          "type": "address"
        },
        {
          "indexed": true,
          "internalType": "uint256",
          "name": "tokenId",
          "type": "uint256"
        }
      ],
      "name": "Transfer",
      "type": "event"
    },
    {
      "inputs": [
        {
          "internalType": "address",
          "name": "to",
          "type": "address"
        },
        {
          "internalType": "uint256",
          "name": "tokenId",
          "type": "uint256"
        }
      ],
      "name": "approve",
      "outputs": [],
      "stateMutability": "nonpayable",
      "type": "function"
    },
    {
      "inputs": [
        {
          "internalType": "address",
          "name": "owner",
          "type": "address"
        }
      ],
      "name": "balanceOf",
      "outputs": [
        {
          "internalType": "uint256",
          "name": "",
          "type": "uint256"
        }
      ],
      "stateMutability": "view",
      "type": "function"
    },
    {
      "inputs": [
        {
          "internalType": "string",
          "name": "name",
          "type": "string"
        },
        {
          "internalType": "string",
          "name": "place",
          "type": "string"
        },
        {
          "internalType": "string",
          "name": "date",
          "type": "string"
        },
        {
          "internalType": "uint256",
          "name": "ticketPrice",
          "type": "uint256"
        },
        {
          "internalType": "uint256",
          "name": "ticketCount",
          "type": "uint256"
        },
        {
          "internalType": "address",
          "name": "organizerAddress",
          "type": "address"
        }
      ],
      "name": "createCollection",
      "outputs": [],
      "stateMutability": "nonpayable",
      "type": "function"
    },
    {
      "inputs": [
        {
          "internalType": "uint256",
          "name": "tokenId",
          "type": "uint256"
        }
      ],
      "name": "exists",
      "outputs": [
        {
          "internalType": "bool",
          "name": "",
          "type": "bool"
        }
      ],
      "stateMutability": "view",
      "type": "function"
    },
    {
      "inputs": [
        {
          "internalType": "uint256",
          "name": "tokenId",
          "type": "uint256"
        }
      ],
      "name": "getApproved",
      "outputs": [
        {
          "internalType": "address",
          "name": "",
          "type": "address"
        }
      ],
      "stateMutability": "view",
      "type": "function"
    },
    {
      "inputs": [
        {
          "internalType": "uint256",
          "name": "collectionId",
          "type": "uint256"
        }
      ],
      "name": "getCollection",
      "outputs": [
        {
          "components": [
            {
              "internalType": "string",
              "name": "name",
              "type": "string"
            },
            {
              "internalType": "uint256[]",
              "name": "tokenIds",
              "type": "uint256[]"
            },
            {
              "internalType": "uint256",
              "name": "ticketCount",
              "type": "uint256"
            },
            {
              "internalType": "uint256",
              "name": "ticketSold",
              "type": "uint256"
            }
          ],
          "internalType": "struct MyToken.Collection",
          "name": "",
          "type": "tuple"
        }
      ],
      "stateMutability": "view",
      "type": "function"
    },
    {
      "inputs": [
        {
          "internalType": "uint256",
          "name": "tokenId",
          "type": "uint256"
        }
      ],
      "name": "getCollectionByTokenId",
      "outputs": [
        {
          "internalType": "uint256",
          "name": "",
          "type": "uint256"
        }
      ],
      "stateMutability": "view",
      "type": "function"
    },
    {
      "inputs": [],
      "name": "getCollectionCounter",
      "outputs": [
        {
          "internalType": "uint256",
          "name": "",
          "type": "uint256"
        }
      ],
      "stateMutability": "view",
      "type": "function"
    },
    {
      "inputs": [
        {
          "internalType": "address",
          "name": "organizer",
          "type": "address"
        }
      ],
      "name": "getCollectionsByOrganizer",
      "outputs": [
        {
          "components": [
            {
              "internalType": "string",
              "name": "name",
              "type": "string"
            },
            {
              "internalType": "uint256[]",
              "name": "tokenIds",
              "type": "uint256[]"
            },
            {
              "internalType": "uint256",
              "name": "ticketCount",
              "type": "uint256"
            },
            {
              "internalType": "uint256",
              "name": "ticketSold",
              "type": "uint256"
            }
          ],
          "internalType": "struct MyToken.Collection[]",
          "name": "",
          "type": "tuple[]"
        }
      ],
      "stateMutability": "view",
      "type": "function"
    },
    {
      "inputs": [
        {
          "internalType": "uint256",
          "name": "tokenId",
          "type": "uint256"
        }
      ],
      "name": "getTicketData",
      "outputs": [
        {
          "components": [
            {
              "internalType": "string",
              "name": "name",
              "type": "string"
            },
            {
              "internalType": "string",
              "name": "place",
              "type": "string"
            },
            {
              "internalType": "string",
              "name": "date",
              "type": "string"
            },
            {
              "internalType": "uint256",
              "name": "ticketPrice",
              "type": "uint256"
            },
            {
              "internalType": "uint256",
              "name": "ticketNumber",
              "type": "uint256"
            },
            {
              "internalType": "address",
              "name": "organizerAddress",
              "type": "address"
            }
          ],
          "internalType": "struct MyToken.TicketData",
          "name": "",
          "type": "tuple"
        }
      ],
      "stateMutability": "view",
      "type": "function"
    },
    {
      "inputs": [
        {
          "internalType": "address",
          "name": "owner",
          "type": "address"
        },
        {
          "internalType": "address",
          "name": "operator",
          "type": "address"
        }
      ],
      "name": "isApprovedForAll",
      "outputs": [
        {
          "internalType": "bool",
          "name": "",
          "type": "bool"
        }
      ],
      "stateMutability": "view",
      "type": "function"
    },
    {
      "inputs": [
        {
          "internalType": "uint256",
          "name": "collectionId",
          "type": "uint256"
        },
        {
          "internalType": "address",
          "name": "to",
          "type": "address"
        }
      ],
      "name": "mint",
      "outputs": [],
      "stateMutability": "nonpayable",
      "type": "function"
    },
    {
      "inputs": [],
      "name": "name",
      "outputs": [
        {
          "internalType": "string",
          "name": "",
          "type": "string"
        }
      ],
      "stateMutability": "view",
      "type": "function"
    },
    {
      "inputs": [],
      "name": "owner",
      "outputs": [
        {
          "internalType": "address",
          "name": "",
          "type": "address"
        }
      ],
      "stateMutability": "view",
      "type": "function"
    },
    {
      "inputs": [
        {
          "internalType": "uint256",
          "name": "tokenId",
          "type": "uint256"
        }
      ],
      "name": "ownerOf",
      "outputs": [
        {
          "internalType": "address",
          "name": "",
          "type": "address"
        }
      ],
      "stateMutability": "view",
      "type": "function"
    },
    {
      "inputs": [],
      "name": "renounceOwnership",
      "outputs": [],
      "stateMutability": "nonpayable",
      "type": "function"
    },
    {
      "inputs": [
        {
          "internalType": "address",
          "name": "from",
          "type": "address"
        },
        {
          "internalType": "address",
          "name": "to",
          "type": "address"
        },
        {
          "internalType": "uint256",
          "name": "tokenId",
          "type": "uint256"
        }
      ],
      "name": "safeTransferFrom",
      "outputs": [],
      "stateMutability": "nonpayable",
      "type": "function"
    },
    {
      "inputs": [
        {
          "internalType": "address",
          "name": "from",
          "type": "address"
        },
        {
          "internalType": "address",
          "name": "to",
          "type": "address"
        },
        {
          "internalType": "uint256",
          "name": "tokenId",
          "type": "uint256"
        },
        {
          "internalType": "bytes",
          "name": "data",
          "type": "bytes"
        }
      ],
      "name": "safeTransferFrom",
      "outputs": [],
      "stateMutability": "nonpayable",
      "type": "function"
    },
    {
      "inputs": [
        {
          "internalType": "address",
          "name": "operator",
          "type": "address"
        },
        {
          "internalType": "bool",
          "name": "approved",
          "type": "bool"
        }
      ],
      "name": "setApprovalForAll",
      "outputs": [],
      "stateMutability": "nonpayable",
      "type": "function"
    },
    {
      "inputs": [
        {
          "internalType": "bytes4",
          "name": "interfaceId",
          "type": "bytes4"
        }
      ],
      "name": "supportsInterface",
      "outputs": [
        {
          "internalType": "bool",
          "name": "",
          "type": "bool"
        }
      ],
      "stateMutability": "view",
      "type": "function"
    },
    {
      "inputs": [],
      "name": "symbol",
      "outputs": [
        {
          "internalType": "string",
          "name": "",
          "type": "string"
        }
      ],
      "stateMutability": "view",
      "type": "function"
    },
    {
      "inputs": [
        {
          "internalType": "uint256",
          "name": "tokenId",
          "type": "uint256"
        }
      ],
      "name": "tokenURI",
      "outputs": [
        {
          "internalType": "string",
          "name": "",
          "type": "string"
        }
      ],
      "stateMutability": "view",
      "type": "function"
    },
    {
      "inputs": [
        {
          "internalType": "address",
          "name": "from",
          "type": "address"
        },
        {
          "internalType": "address",
          "name": "to",
          "type": "address"
        },
        {
          "internalType": "uint256",
          "name": "tokenId",
          "type": "uint256"
        }
      ],
      "name": "transferFrom",
      "outputs": [],
      "stateMutability": "nonpayable",
      "type": "function"
    },
    {
      "inputs": [
        {
          "internalType": "address",
          "name": "newOwner",
          "type": "address"
        }
      ],
      "name": "transferOwnership",
      "outputs": [],
      "stateMutability": "nonpayable",
      "type": "function"
    },
    {
      "inputs": [
        {
          "internalType": "uint256",
          "name": "tokenId",
          "type": "uint256"
        },
        {
          "internalType": "address payable",
          "name": "to",
          "type": "address"
        },
        {
          "internalType": "uint256",
          "name": "feePercentage",
          "type": "uint256"
        }
      ],
      "name": "transferTicket",
      "outputs": [],
      "stateMutability": "payable",
      "type": "function"
    }
  ],
  "bytecode": "0x60806040523480156200001157600080fd5b506040518060400160405280600781526020017f4d79546f6b656e000000000000000000000000000000000000000000000000008152506040518060400160405280600381526020017f4d544b0000000000000000000000000000000000000000000000000000000000815250816000908051906020019062000096929190620001a6565b508060019080519060200190620000af929190620001a6565b505050620000d2620000c6620000d860201b60201c565b620000e060201b60201c565b620002bb565b600033905090565b6000600660009054906101000a900473ffffffffffffffffffffffffffffffffffffffff16905081600660006101000a81548173ffffffffffffffffffffffffffffffffffffffff021916908373ffffffffffffffffffffffffffffffffffffffff1602179055508173ffffffffffffffffffffffffffffffffffffffff168173ffffffffffffffffffffffffffffffffffffffff167f8be0079c531659141344cd1fd0a4f28419497f9722a3daafe3b4186f6b6457e060405160405180910390a35050565b828054620001b49062000256565b90600052602060002090601f016020900481019282620001d8576000855562000224565b82601f10620001f357805160ff191683800117855562000224565b8280016001018555821562000224579182015b828111156200022357825182559160200191906001019062000206565b5b50905062000233919062000237565b5090565b5b808211156200025257600081600090555060010162000238565b5090565b600060028204905060018216806200026f57607f821691505b602082108114156200028657620002856200028c565b5b50919050565b7f4e487b7100000000000000000000000000000000000000000000000000000000600052602260045260246000fd5b614a2080620002cb6000396000f3fe6080604052600436106101665760003560e01c806370a08231116100d1578063a22cb4651161008a578063d9895e6a11610064578063d9895e6a14610572578063da6d790b146105af578063e985e9c5146105cb578063f2fde38b1461060857610166565b8063a22cb465146104e3578063b88d4fde1461050c578063c87b56dd1461053557610166565b806370a08231146103e5578063715018a614610422578063835b83aa146104395780638da5cb5b1461046457806394bf804d1461048f57806395d89b41146104b857610166565b806323b872dd1161012357806323b872dd146102b3578063313d82cf146102dc57806342842e0e146103055780634f558e791461032e5780635a1f3c281461036b5780636352211e146103a857610166565b806301ffc9a71461016b57806306fdde03146101a8578063081812fc146101d3578063095ea7b3146102105780630d88dd3614610239578063122532b714610276575b600080fd5b34801561017757600080fd5b50610192600480360381019061018d91906133cb565b610631565b60405161019f9190613cbf565b60405180910390f35b3480156101b457600080fd5b506101bd610713565b6040516101ca9190613cda565b60405180910390f35b3480156101df57600080fd5b506101fa60048036038101906101f591906134ee565b6107a5565b6040516102079190613c36565b60405180910390f35b34801561021c57600080fd5b506102376004803603810190610232919061338f565b6107eb565b005b34801561024557600080fd5b50610260600480360381019061025b91906134ee565b610903565b60405161026d9190613fe0565b60405180910390f35b34801561028257600080fd5b5061029d60048036038101906102989190613224565b610b51565b6040516102aa9190613c9d565b60405180910390f35b3480156102bf57600080fd5b506102da60048036038101906102d59190613289565b610f62565b005b3480156102e857600080fd5b5061030360048036038101906102fe919061341d565b610fc2565b005b34801561031157600080fd5b5061032c60048036038101906103279190613289565b611283565b005b34801561033a57600080fd5b50610355600480360381019061035091906134ee565b6112a3565b6040516103629190613cbf565b60405180910390f35b34801561037757600080fd5b50610392600480360381019061038d91906134ee565b6112b5565b60405161039f9190613f9c565b60405180910390f35b3480156103b457600080fd5b506103cf60048036038101906103ca91906134ee565b611445565b6040516103dc9190613c36565b60405180910390f35b3480156103f157600080fd5b5061040c60048036038101906104079190613224565b6114cc565b6040516104199190613fe0565b60405180910390f35b34801561042e57600080fd5b50610437611584565b005b34801561044557600080fd5b5061044e611598565b60405161045b9190613fe0565b60405180910390f35b34801561047057600080fd5b506104796115a9565b6040516104869190613c36565b60405180910390f35b34801561049b57600080fd5b506104b660048036038101906104b19190613517565b6115d3565b005b3480156104c457600080fd5b506104cd6116ff565b6040516104da9190613cda565b60405180910390f35b3480156104ef57600080fd5b5061050a60048036038101906105059190613353565b611791565b005b34801561051857600080fd5b50610533600480360381019061052e91906132d8565b6117a7565b005b34801561054157600080fd5b5061055c600480360381019061055791906134ee565b611809565b6040516105699190613cda565b60405180910390f35b34801561057e57600080fd5b50610599600480360381019061059491906134ee565b611871565b6040516105a69190613fbe565b60405180910390f35b6105c960048036038101906105c49190613553565b611b06565b005b3480156105d757600080fd5b506105f260048036038101906105ed919061324d565b611dd7565b6040516105ff9190613cbf565b60405180910390f35b34801561061457600080fd5b5061062f600480360381019061062a9190613224565b611e6b565b005b60007f80ac58cd000000000000000000000000000000000000000000000000000000007bffffffffffffffffffffffffffffffffffffffffffffffffffffffff1916827bffffffffffffffffffffffffffffffffffffffffffffffffffffffff191614806106fc57507f5b5e139f000000000000000000000000000000000000000000000000000000007bffffffffffffffffffffffffffffffffffffffffffffffffffffffff1916827bffffffffffffffffffffffffffffffffffffffffffffffffffffffff1916145b8061070c575061070b82611eef565b5b9050919050565b60606000805461072290614325565b80601f016020809104026020016040519081016040528092919081815260200182805461074e90614325565b801561079b5780601f106107705761010080835404028352916020019161079b565b820191906000526020600020905b81548152906001019060200180831161077e57829003601f168201915b5050505050905090565b60006107b082611f59565b6004600083815260200190815260200160002060009054906101000a900473ffffffffffffffffffffffffffffffffffffffff169050919050565b60006107f682611445565b90508073ffffffffffffffffffffffffffffffffffffffff168373ffffffffffffffffffffffffffffffffffffffff161415610867576040517f08c379a000000000000000000000000000000000000000000000000000000000815260040161085e90613f3c565b60405180910390fd5b8073ffffffffffffffffffffffffffffffffffffffff16610886611fa4565b73ffffffffffffffffffffffffffffffffffffffff1614806108b557506108b4816108af611fa4565b611dd7565b5b6108f4576040517f08c379a00000000000000000000000000000000000000000000000000000000081526004016108eb90613f7c565b60405180910390fd5b6108fe8383611fac565b505050565b600061090e82612065565b61094d576040517f08c379a000000000000000000000000000000000000000000000000000000000815260040161094490613e1c565b60405180910390fd5b60005b61095a60076120a6565b811015610b105760006009600083815260200190815260200160002060405180608001604052908160008201805461099190614325565b80601f01602080910402602001604051908101604052809291908181526020018280546109bd90614325565b8015610a0a5780601f106109df57610100808354040283529160200191610a0a565b820191906000526020600020905b8154815290600101906020018083116109ed57829003601f168201915b5050505050815260200160018201805480602002602001604051908101604052809291908181526020018280548015610a6257602002820191906000526020600020905b815481526020019060010190808311610a4e575b5050505050815260200160028201548152602001600382015481525050905060005b816020015151811015610afb578482602001518281518110610acf577f4e487b7100000000000000000000000000000000000000000000000000000000600052603260045260246000fd5b60200260200101511415610ae857809350505050610b4c565b8080610af390614388565b915050610a84565b50508080610b0890614388565b915050610950565b506040517f08c379a0000000000000000000000000000000000000000000000000000000008152600401610b4390613edc565b60405180910390fd5b919050565b60606000610b5f60076120a6565b90506000808267ffffffffffffffff811115610ba4577f4e487b7100000000000000000000000000000000000000000000000000000000600052604160045260246000fd5b604051908082528060200260200182016040528015610bdd57816020015b610bca612f72565b815260200190600190039081610bc25790505b50905060005b83811015610e3357600060096000838152602001908152602001600020604051806080016040529081600082018054610c1b90614325565b80601f0160208091040260200160405190810160405280929190818152602001828054610c4790614325565b8015610c945780601f10610c6957610100808354040283529160200191610c94565b820191906000526020600020905b815481529060010190602001808311610c7757829003601f168201915b5050505050815260200160018201805480602002602001604051908101604052809291908181526020018280548015610cec57602002820191906000526020600020905b815481526020019060010190808311610cd8575b505050505081526020016002820154815260200160038201548152505090506000816020015151118015610dc657508673ffffffffffffffffffffffffffffffffffffffff16600a60008360200151600081518110610d74577f4e487b7100000000000000000000000000000000000000000000000000000000600052603260045260246000fd5b6020026020010151815260200190815260200160002060050160009054906101000a900473ffffffffffffffffffffffffffffffffffffffff1673ffffffffffffffffffffffffffffffffffffffff16145b15610e1f5780838581518110610e05577f4e487b7100000000000000000000000000000000000000000000000000000000600052603260045260246000fd5b60200260200101819052508380610e1b90614388565b9450505b508080610e2b90614388565b915050610be3565b5060008267ffffffffffffffff811115610e76577f4e487b7100000000000000000000000000000000000000000000000000000000600052604160045260246000fd5b604051908082528060200260200182016040528015610eaf57816020015b610e9c612f72565b815260200190600190039081610e945790505b50905060005b83811015610f5557828181518110610ef6577f4e487b7100000000000000000000000000000000000000000000000000000000600052603260045260246000fd5b6020026020010151828281518110610f37577f4e487b7100000000000000000000000000000000000000000000000000000000600052603260045260246000fd5b60200260200101819052508080610f4d90614388565b915050610eb5565b5080945050505050919050565b610f73610f6d611fa4565b826120b4565b610fb2576040517f08c379a0000000000000000000000000000000000000000000000000000000008152600401610fa990613cfc565b60405180910390fd5b610fbd838383612149565b505050565b610fca612443565b60005b8281101561116e5760006040518060c001604052808981526020018881526020018781526020018681526020016001846110079190614148565b81526020018473ffffffffffffffffffffffffffffffffffffffff168152509050600061103460086120a6565b905061104060086124c1565b61104a33826124d7565b81600a6000838152602001908152602001600020600082015181600001908051906020019061107a929190612f9a565b506020820151816001019080519060200190611097929190612f9a565b5060408201518160020190805190602001906110b4929190612f9a565b50606082015181600301556080820151816004015560a08201518160050160006101000a81548173ffffffffffffffffffffffffffffffffffffffff021916908373ffffffffffffffffffffffffffffffffffffffff1602179055509050506009600061112160076120a6565b81526020019081526020016000206001018190806001815401808255809150506001900390600052602060002001600090919091909150555050808061116690614388565b915050610fcd565b50600060405180608001604052808881526020016009600061119060076120a6565b81526020019081526020016000206001018054806020026020016040519081016040528092919081815260200182805480156111eb57602002820191906000526020600020905b8154815260200190600101908083116111d7575b5050505050815260200184815260200160008152509050806009600061121160076120a6565b8152602001908152602001600020600082015181600001908051906020019061123b929190612f9a565b506020820151816001019080519060200190611258929190613020565b50604082015181600201556060820151816003015590505061127a60076124c1565b50505050505050565b61129e838383604051806020016040528060008152506117a7565b505050565b60006112ae82612065565b9050919050565b6112bd612f72565b60006009600084815260200190815260200160002060000180546112e090614325565b905011611322576040517f08c379a000000000000000000000000000000000000000000000000000000000815260040161131990613dbc565b60405180910390fd5b6009600083815260200190815260200160002060405180608001604052908160008201805461135090614325565b80601f016020809104026020016040519081016040528092919081815260200182805461137c90614325565b80156113c95780601f1061139e576101008083540402835291602001916113c9565b820191906000526020600020905b8154815290600101906020018083116113ac57829003601f168201915b505050505081526020016001820180548060200260200160405190810160405280929190818152602001828054801561142157602002820191906000526020600020905b81548152602001906001019080831161140d575b50505050508152602001600282015481526020016003820154815250509050919050565b600080611451836124f5565b9050600073ffffffffffffffffffffffffffffffffffffffff168173ffffffffffffffffffffffffffffffffffffffff1614156114c3576040517f08c379a00000000000000000000000000000000000000000000000000000000081526004016114ba90613f1c565b60405180910390fd5b80915050919050565b60008073ffffffffffffffffffffffffffffffffffffffff168273ffffffffffffffffffffffffffffffffffffffff16141561153d576040517f08c379a000000000000000000000000000000000000000000000000000000000815260040161153490613e3c565b60405180910390fd5b600360008373ffffffffffffffffffffffffffffffffffffffff1673ffffffffffffffffffffffffffffffffffffffff168152602001908152602001600020549050919050565b61158c612443565b6115966000612532565b565b60006115a460076120a6565b905090565b6000600660009054906101000a900473ffffffffffffffffffffffffffffffffffffffff16905090565b6115db612443565b60006009600084815260200190815260200160002060000180546115fe90614325565b905011611640576040517f08c379a000000000000000000000000000000000000000000000000000000000815260040161163790613dbc565b60405180910390fd5b6000600161164e60086120a6565b6116589190614148565b90506000600a600083815260200190815260200160002060040154146116b3576040517f08c379a00000000000000000000000000000000000000000000000000000000081526004016116aa90613d1c565b60405180910390fd5b6116bd82826124d7565b60096000848152602001908152602001600020600101819080600181540180825580915050600190039060005260206000200160009091909190915055505050565b60606001805461170e90614325565b80601f016020809104026020016040519081016040528092919081815260200182805461173a90614325565b80156117875780601f1061175c57610100808354040283529160200191611787565b820191906000526020600020905b81548152906001019060200180831161176a57829003601f168201915b5050505050905090565b6117a361179c611fa4565b83836125f8565b5050565b6117b86117b2611fa4565b836120b4565b6117f7576040517f08c379a00000000000000000000000000000000000000000000000000000000081526004016117ee90613cfc565b60405180910390fd5b61180384848484612765565b50505050565b606061181482611f59565b600061181e6127c1565b9050600081511161183e5760405180602001604052806000815250611869565b80611848846127d8565b604051602001611859929190613c12565b6040516020818303038152906040525b915050919050565b61187961306d565b61188282612065565b6118c1576040517f08c379a00000000000000000000000000000000000000000000000000000000081526004016118b890613e5c565b60405180910390fd5b600a60008381526020019081526020016000206040518060c00160405290816000820180546118ef90614325565b80601f016020809104026020016040519081016040528092919081815260200182805461191b90614325565b80156119685780601f1061193d57610100808354040283529160200191611968565b820191906000526020600020905b81548152906001019060200180831161194b57829003601f168201915b5050505050815260200160018201805461198190614325565b80601f01602080910402602001604051908101604052809291908181526020018280546119ad90614325565b80156119fa5780601f106119cf576101008083540402835291602001916119fa565b820191906000526020600020905b8154815290600101906020018083116119dd57829003601f168201915b50505050508152602001600282018054611a1390614325565b80601f0160208091040260200160405190810160405280929190818152602001828054611a3f90614325565b8015611a8c5780601f10611a6157610100808354040283529160200191611a8c565b820191906000526020600020905b815481529060010190602001808311611a6f57829003601f168201915b5050505050815260200160038201548152602001600482015481526020016005820160009054906101000a900473ffffffffffffffffffffffffffffffffffffffff1673ffffffffffffffffffffffffffffffffffffffff1673ffffffffffffffffffffffffffffffffffffffff16815250509050919050565b611b0f83612065565b611b4e576040517f08c379a0000000000000000000000000000000000000000000000000000000008152600401611b4590613e5c565b60405180910390fd5b3373ffffffffffffffffffffffffffffffffffffffff16611b6e84611445565b73ffffffffffffffffffffffffffffffffffffffff1614611bc4576040517f08c379a0000000000000000000000000000000000000000000000000000000008152600401611bbb90613e7c565b60405180910390fd5b600073ffffffffffffffffffffffffffffffffffffffff168273ffffffffffffffffffffffffffffffffffffffff161415611c34576040517f08c379a0000000000000000000000000000000000000000000000000000000008152600401611c2b90613f5c565b60405180910390fd5b600a600084815260200190815260200160002060030154341015611c8d576040517f08c379a0000000000000000000000000000000000000000000000000000000008152600401611c8490613ebc565b60405180910390fd5b60006127108234611c9e91906141cf565b611ca8919061419e565b905060008134611cb89190614229565b90506000600a600087815260200190815260200160002060050160009054906101000a900473ffffffffffffffffffffffffffffffffffffffff1690508073ffffffffffffffffffffffffffffffffffffffff166108fc839081150290604051600060405180830381858888f19350505050158015611d3b573d6000803e3d6000fd5b506000611d466115a9565b90508073ffffffffffffffffffffffffffffffffffffffff166108fc859081150290604051600060405180830381858888f19350505050158015611d8e573d6000803e3d6000fd5b50611d9a338789612149565b60096000611da789610903565b81526020019081526020016000206003016000815480929190611dc990614388565b919050555050505050505050565b6000600560008473ffffffffffffffffffffffffffffffffffffffff1673ffffffffffffffffffffffffffffffffffffffff16815260200190815260200160002060008373ffffffffffffffffffffffffffffffffffffffff1673ffffffffffffffffffffffffffffffffffffffff16815260200190815260200160002060009054906101000a900460ff16905092915050565b611e73612443565b600073ffffffffffffffffffffffffffffffffffffffff168173ffffffffffffffffffffffffffffffffffffffff161415611ee3576040517f08c379a0000000000000000000000000000000000000000000000000000000008152600401611eda90613d5c565b60405180910390fd5b611eec81612532565b50565b60007f01ffc9a7000000000000000000000000000000000000000000000000000000007bffffffffffffffffffffffffffffffffffffffffffffffffffffffff1916827bffffffffffffffffffffffffffffffffffffffffffffffffffffffff1916149050919050565b611f6281612065565b611fa1576040517f08c379a0000000000000000000000000000000000000000000000000000000008152600401611f9890613f1c565b60405180910390fd5b50565b600033905090565b816004600083815260200190815260200160002060006101000a81548173ffffffffffffffffffffffffffffffffffffffff021916908373ffffffffffffffffffffffffffffffffffffffff160217905550808273ffffffffffffffffffffffffffffffffffffffff1661201f83611445565b73ffffffffffffffffffffffffffffffffffffffff167f8c5be1e5ebec7d5bd14f71427d1e84f3dd0314c0f7b2291e5b200ac8c7c3b92560405160405180910390a45050565b60008073ffffffffffffffffffffffffffffffffffffffff16612087836124f5565b73ffffffffffffffffffffffffffffffffffffffff1614159050919050565b600081600001549050919050565b6000806120c083611445565b90508073ffffffffffffffffffffffffffffffffffffffff168473ffffffffffffffffffffffffffffffffffffffff16148061210257506121018185611dd7565b5b8061214057508373ffffffffffffffffffffffffffffffffffffffff16612128846107a5565b73ffffffffffffffffffffffffffffffffffffffff16145b91505092915050565b8273ffffffffffffffffffffffffffffffffffffffff1661216982611445565b73ffffffffffffffffffffffffffffffffffffffff16146121bf576040517f08c379a00000000000000000000000000000000000000000000000000000000081526004016121b690613d7c565b60405180910390fd5b600073ffffffffffffffffffffffffffffffffffffffff168273ffffffffffffffffffffffffffffffffffffffff16141561222f576040517f08c379a000000000000000000000000000000000000000000000000000000000815260040161222690613ddc565b60405180910390fd5b61223c83838360016128fc565b8273ffffffffffffffffffffffffffffffffffffffff1661225c82611445565b73ffffffffffffffffffffffffffffffffffffffff16146122b2576040517f08c379a00000000000000000000000000000000000000000000000000000000081526004016122a990613d7c565b60405180910390fd5b6004600082815260200190815260200160002060006101000a81549073ffffffffffffffffffffffffffffffffffffffff02191690556001600360008573ffffffffffffffffffffffffffffffffffffffff1673ffffffffffffffffffffffffffffffffffffffff168152602001908152602001600020600082825403925050819055506001600360008473ffffffffffffffffffffffffffffffffffffffff1673ffffffffffffffffffffffffffffffffffffffff16815260200190815260200160002060008282540192505081905550816002600083815260200190815260200160002060006101000a81548173ffffffffffffffffffffffffffffffffffffffff021916908373ffffffffffffffffffffffffffffffffffffffff160217905550808273ffffffffffffffffffffffffffffffffffffffff168473ffffffffffffffffffffffffffffffffffffffff167fddf252ad1be2c89b69c2b068fc378daa952ba7f163c4a11628f55a4df523b3ef60405160405180910390a461243e8383836001612902565b505050565b61244b611fa4565b73ffffffffffffffffffffffffffffffffffffffff166124696115a9565b73ffffffffffffffffffffffffffffffffffffffff16146124bf576040517f08c379a00000000000000000000000000000000000000000000000000000000081526004016124b690613efc565b60405180910390fd5b565b6001816000016000828254019250508190555050565b6124f1828260405180602001604052806000815250612908565b5050565b60006002600083815260200190815260200160002060009054906101000a900473ffffffffffffffffffffffffffffffffffffffff169050919050565b6000600660009054906101000a900473ffffffffffffffffffffffffffffffffffffffff16905081600660006101000a81548173ffffffffffffffffffffffffffffffffffffffff021916908373ffffffffffffffffffffffffffffffffffffffff1602179055508173ffffffffffffffffffffffffffffffffffffffff168173ffffffffffffffffffffffffffffffffffffffff167f8be0079c531659141344cd1fd0a4f28419497f9722a3daafe3b4186f6b6457e060405160405180910390a35050565b8173ffffffffffffffffffffffffffffffffffffffff168373ffffffffffffffffffffffffffffffffffffffff161415612667576040517f08c379a000000000000000000000000000000000000000000000000000000000815260040161265e90613dfc565b60405180910390fd5b80600560008573ffffffffffffffffffffffffffffffffffffffff1673ffffffffffffffffffffffffffffffffffffffff16815260200190815260200160002060008473ffffffffffffffffffffffffffffffffffffffff1673ffffffffffffffffffffffffffffffffffffffff16815260200190815260200160002060006101000a81548160ff0219169083151502179055508173ffffffffffffffffffffffffffffffffffffffff168373ffffffffffffffffffffffffffffffffffffffff167f17307eab39ab6107e8899845ad3d59bd9653f200f220920489ca2b5937696c31836040516127589190613cbf565b60405180910390a3505050565b612770848484612149565b61277c84848484612963565b6127bb576040517f08c379a00000000000000000000000000000000000000000000000000000000081526004016127b290613d3c565b60405180910390fd5b50505050565b606060405180602001604052806000815250905090565b6060600060016127e784612afa565b01905060008167ffffffffffffffff81111561282c577f4e487b7100000000000000000000000000000000000000000000000000000000600052604160045260246000fd5b6040519080825280601f01601f19166020018201604052801561285e5781602001600182028036833780820191505090505b509050600082602001820190505b6001156128f1578080600190039150507f3031323334353637383961626364656600000000000000000000000000000000600a86061a8153600a85816128db577f4e487b7100000000000000000000000000000000000000000000000000000000600052601260045260246000fd5b04945060008514156128ec576128f1565b61286c565b819350505050919050565b50505050565b50505050565b6129128383612d31565b61291f6000848484612963565b61295e576040517f08c379a000000000000000000000000000000000000000000000000000000000815260040161295590613d3c565b60405180910390fd5b505050565b60006129848473ffffffffffffffffffffffffffffffffffffffff16612f4f565b15612aed578373ffffffffffffffffffffffffffffffffffffffff1663150b7a026129ad611fa4565b8786866040518563ffffffff1660e01b81526004016129cf9493929190613c51565b602060405180830381600087803b1580156129e957600080fd5b505af1925050508015612a1a57506040513d601f19601f82011682018060405250810190612a1791906133f4565b60015b612a9d573d8060008114612a4a576040519150601f19603f3d011682016040523d82523d6000602084013e612a4f565b606091505b50600081511415612a95576040517f08c379a0000000000000000000000000000000000000000000000000000000008152600401612a8c90613d3c565b60405180910390fd5b805181602001fd5b63150b7a0260e01b7bffffffffffffffffffffffffffffffffffffffffffffffffffffffff1916817bffffffffffffffffffffffffffffffffffffffffffffffffffffffff191614915050612af2565b600190505b949350505050565b600080600090507a184f03e93ff9f4daa797ed6e38ed64bf6a1f0100000000000000008310612b7e577a184f03e93ff9f4daa797ed6e38ed64bf6a1f0100000000000000008381612b74577f4e487b7100000000000000000000000000000000000000000000000000000000600052601260045260246000fd5b0492506040810190505b6d04ee2d6d415b85acef81000000008310612be1576d04ee2d6d415b85acef81000000008381612bd7577f4e487b7100000000000000000000000000000000000000000000000000000000600052601260045260246000fd5b0492506020810190505b662386f26fc100008310612c3657662386f26fc100008381612c2c577f4e487b7100000000000000000000000000000000000000000000000000000000600052601260045260246000fd5b0492506010810190505b6305f5e1008310612c85576305f5e1008381612c7b577f4e487b7100000000000000000000000000000000000000000000000000000000600052601260045260246000fd5b0492506008810190505b6127108310612cd0576127108381612cc6577f4e487b7100000000000000000000000000000000000000000000000000000000600052601260045260246000fd5b0492506004810190505b60648310612d195760648381612d0f577f4e487b7100000000000000000000000000000000000000000000000000000000600052601260045260246000fd5b0492506002810190505b600a8310612d28576001810190505b80915050919050565b600073ffffffffffffffffffffffffffffffffffffffff168273ffffffffffffffffffffffffffffffffffffffff161415612da1576040517f08c379a0000000000000000000000000000000000000000000000000000000008152600401612d9890613e9c565b60405180910390fd5b612daa81612065565b15612dea576040517f08c379a0000000000000000000000000000000000000000000000000000000008152600401612de190613d9c565b60405180910390fd5b612df86000838360016128fc565b612e0181612065565b15612e41576040517f08c379a0000000000000000000000000000000000000000000000000000000008152600401612e3890613d9c565b60405180910390fd5b6001600360008473ffffffffffffffffffffffffffffffffffffffff1673ffffffffffffffffffffffffffffffffffffffff16815260200190815260200160002060008282540192505081905550816002600083815260200190815260200160002060006101000a81548173ffffffffffffffffffffffffffffffffffffffff021916908373ffffffffffffffffffffffffffffffffffffffff160217905550808273ffffffffffffffffffffffffffffffffffffffff16600073ffffffffffffffffffffffffffffffffffffffff167fddf252ad1be2c89b69c2b068fc378daa952ba7f163c4a11628f55a4df523b3ef60405160405180910390a4612f4b600083836001612902565b5050565b6000808273ffffffffffffffffffffffffffffffffffffffff163b119050919050565b6040518060800160405280606081526020016060815260200160008152602001600081525090565b828054612fa690614325565b90600052602060002090601f016020900481019282612fc8576000855561300f565b82601f10612fe157805160ff191683800117855561300f565b8280016001018555821561300f579182015b8281111561300e578251825591602001919060010190612ff3565b5b50905061301c91906130b9565b5090565b82805482825590600052602060002090810192821561305c579160200282015b8281111561305b578251825591602001919060010190613040565b5b50905061306991906130b9565b5090565b6040518060c001604052806060815260200160608152602001606081526020016000815260200160008152602001600073ffffffffffffffffffffffffffffffffffffffff1681525090565b5b808211156130d25760008160009055506001016130ba565b5090565b60006130e96130e484614020565b613ffb565b90508281526020810184848401111561310157600080fd5b61310c8482856142e3565b509392505050565b600061312761312284614051565b613ffb565b90508281526020810184848401111561313f57600080fd5b61314a8482856142e3565b509392505050565b60008135905061316181614977565b92915050565b6000813590506131768161498e565b92915050565b60008135905061318b816149a5565b92915050565b6000813590506131a0816149bc565b92915050565b6000815190506131b5816149bc565b92915050565b600082601f8301126131cc57600080fd5b81356131dc8482602086016130d6565b91505092915050565b600082601f8301126131f657600080fd5b8135613206848260208601613114565b91505092915050565b60008135905061321e816149d3565b92915050565b60006020828403121561323657600080fd5b600061324484828501613152565b91505092915050565b6000806040838503121561326057600080fd5b600061326e85828601613152565b925050602061327f85828601613152565b9150509250929050565b60008060006060848603121561329e57600080fd5b60006132ac86828701613152565b93505060206132bd86828701613152565b92505060406132ce8682870161320f565b9150509250925092565b600080600080608085870312156132ee57600080fd5b60006132fc87828801613152565b945050602061330d87828801613152565b935050604061331e8782880161320f565b925050606085013567ffffffffffffffff81111561333b57600080fd5b613347878288016131bb565b91505092959194509250565b6000806040838503121561336657600080fd5b600061337485828601613152565b92505060206133858582860161317c565b9150509250929050565b600080604083850312156133a257600080fd5b60006133b085828601613152565b92505060206133c18582860161320f565b9150509250929050565b6000602082840312156133dd57600080fd5b60006133eb84828501613191565b91505092915050565b60006020828403121561340657600080fd5b6000613414848285016131a6565b91505092915050565b60008060008060008060c0878903121561343657600080fd5b600087013567ffffffffffffffff81111561345057600080fd5b61345c89828a016131e5565b965050602087013567ffffffffffffffff81111561347957600080fd5b61348589828a016131e5565b955050604087013567ffffffffffffffff8111156134a257600080fd5b6134ae89828a016131e5565b94505060606134bf89828a0161320f565b93505060806134d089828a0161320f565b92505060a06134e189828a01613152565b9150509295509295509295565b60006020828403121561350057600080fd5b600061350e8482850161320f565b91505092915050565b6000806040838503121561352a57600080fd5b60006135388582860161320f565b925050602061354985828601613152565b9150509250929050565b60008060006060848603121561356857600080fd5b60006135768682870161320f565b935050602061358786828701613167565b92505060406135988682870161320f565b9150509250925092565b60006135ae8383613a89565b905092915050565b60006135c28383613bf4565b60208301905092915050565b6135d78161425d565b82525050565b6135e68161425d565b82525050565b60006135f7826140a2565b61360181856140e8565b93508360208202850161361385614082565b8060005b8581101561364f578484038952815161363085826135a2565b945061363b836140ce565b925060208a01995050600181019050613617565b50829750879550505050505092915050565b600061366c826140ad565b61367681856140f9565b935061368183614092565b8060005b838110156136b257815161369988826135b6565b97506136a4836140db565b925050600181019050613685565b5085935050505092915050565b6136c881614281565b82525050565b60006136d9826140b8565b6136e3818561410a565b93506136f38185602086016142f2565b6136fc8161448d565b840191505092915050565b6000613712826140c3565b61371c818561411b565b935061372c8185602086016142f2565b6137358161448d565b840191505092915050565b600061374b826140c3565b613755818561412c565b93506137658185602086016142f2565b61376e8161448d565b840191505092915050565b6000613784826140c3565b61378e818561413d565b935061379e8185602086016142f2565b80840191505092915050565b60006137b7602d8361412c565b91506137c28261449e565b604082019050919050565b60006137da60148361412c565b91506137e5826144ed565b602082019050919050565b60006137fd60328361412c565b915061380882614516565b604082019050919050565b600061382060268361412c565b915061382b82614565565b604082019050919050565b600061384360258361412c565b915061384e826145b4565b604082019050919050565b6000613866601c8361412c565b915061387182614603565b602082019050919050565b600061388960198361412c565b91506138948261462c565b602082019050919050565b60006138ac60248361412c565b91506138b782614655565b604082019050919050565b60006138cf60198361412c565b91506138da826146a4565b602082019050919050565b60006138f260148361412c565b91506138fd826146cd565b602082019050919050565b600061391560298361412c565b9150613920826146f6565b604082019050919050565b600061393860158361412c565b915061394382614745565b602082019050919050565b600061395b60258361412c565b91506139668261476e565b604082019050919050565b600061397e60208361412c565b9150613989826147bd565b602082019050919050565b60006139a160148361412c565b91506139ac826147e6565b602082019050919050565b60006139c460218361412c565b91506139cf8261480f565b604082019050919050565b60006139e760208361412c565b91506139f28261485e565b602082019050919050565b6000613a0a60188361412c565b9150613a1582614887565b602082019050919050565b6000613a2d60218361412c565b9150613a38826148b0565b604082019050919050565b6000613a50601f8361412c565b9150613a5b826148ff565b602082019050919050565b6000613a73603d8361412c565b9150613a7e82614928565b604082019050919050565b60006080830160008301518482036000860152613aa68282613707565b91505060208301518482036020860152613ac08282613661565b9150506040830151613ad56040860182613bf4565b506060830151613ae86060860182613bf4565b508091505092915050565b60006080830160008301518482036000860152613b108282613707565b91505060208301518482036020860152613b2a8282613661565b9150506040830151613b3f6040860182613bf4565b506060830151613b526060860182613bf4565b508091505092915050565b600060c0830160008301518482036000860152613b7a8282613707565b91505060208301518482036020860152613b948282613707565b91505060408301518482036040860152613bae8282613707565b9150506060830151613bc36060860182613bf4565b506080830151613bd66080860182613bf4565b5060a0830151613be960a08601826135ce565b508091505092915050565b613bfd816142d9565b82525050565b613c0c816142d9565b82525050565b6000613c1e8285613779565b9150613c2a8284613779565b91508190509392505050565b6000602082019050613c4b60008301846135dd565b92915050565b6000608082019050613c6660008301876135dd565b613c7360208301866135dd565b613c806040830185613c03565b8181036060830152613c9281846136ce565b905095945050505050565b60006020820190508181036000830152613cb781846135ec565b905092915050565b6000602082019050613cd460008301846136bf565b92915050565b60006020820190508181036000830152613cf48184613740565b905092915050565b60006020820190508181036000830152613d15816137aa565b9050919050565b60006020820190508181036000830152613d35816137cd565b9050919050565b60006020820190508181036000830152613d55816137f0565b9050919050565b60006020820190508181036000830152613d7581613813565b9050919050565b60006020820190508181036000830152613d9581613836565b9050919050565b60006020820190508181036000830152613db581613859565b9050919050565b60006020820190508181036000830152613dd58161387c565b9050919050565b60006020820190508181036000830152613df58161389f565b9050919050565b60006020820190508181036000830152613e15816138c2565b9050919050565b60006020820190508181036000830152613e35816138e5565b9050919050565b60006020820190508181036000830152613e5581613908565b9050919050565b60006020820190508181036000830152613e758161392b565b9050919050565b60006020820190508181036000830152613e958161394e565b9050919050565b60006020820190508181036000830152613eb581613971565b9050919050565b60006020820190508181036000830152613ed581613994565b9050919050565b60006020820190508181036000830152613ef5816139b7565b9050919050565b60006020820190508181036000830152613f15816139da565b9050919050565b60006020820190508181036000830152613f35816139fd565b9050919050565b60006020820190508181036000830152613f5581613a20565b9050919050565b60006020820190508181036000830152613f7581613a43565b9050919050565b60006020820190508181036000830152613f9581613a66565b9050919050565b60006020820190508181036000830152613fb68184613af3565b905092915050565b60006020820190508181036000830152613fd88184613b5d565b905092915050565b6000602082019050613ff56000830184613c03565b92915050565b6000614005614016565b90506140118282614357565b919050565b6000604051905090565b600067ffffffffffffffff82111561403b5761403a61445e565b5b6140448261448d565b9050602081019050919050565b600067ffffffffffffffff82111561406c5761406b61445e565b5b6140758261448d565b9050602081019050919050565b6000819050602082019050919050565b6000819050602082019050919050565b600081519050919050565b600081519050919050565b600081519050919050565b600081519050919050565b6000602082019050919050565b6000602082019050919050565b600082825260208201905092915050565b600082825260208201905092915050565b600082825260208201905092915050565b600082825260208201905092915050565b600082825260208201905092915050565b600081905092915050565b6000614153826142d9565b915061415e836142d9565b9250827fffffffffffffffffffffffffffffffffffffffffffffffffffffffffffffffff03821115614193576141926143d1565b5b828201905092915050565b60006141a9826142d9565b91506141b4836142d9565b9250826141c4576141c3614400565b5b828204905092915050565b60006141da826142d9565b91506141e5836142d9565b9250817fffffffffffffffffffffffffffffffffffffffffffffffffffffffffffffffff048311821515161561421e5761421d6143d1565b5b828202905092915050565b6000614234826142d9565b915061423f836142d9565b925082821015614252576142516143d1565b5b828203905092915050565b6000614268826142b9565b9050919050565b600061427a826142b9565b9050919050565b60008115159050919050565b60007fffffffff0000000000000000000000000000000000000000000000000000000082169050919050565b600073ffffffffffffffffffffffffffffffffffffffff82169050919050565b6000819050919050565b82818337600083830152505050565b60005b838110156143105780820151818401526020810190506142f5565b8381111561431f576000848401525b50505050565b6000600282049050600182168061433d57607f821691505b602082108114156143515761435061442f565b5b50919050565b6143608261448d565b810181811067ffffffffffffffff8211171561437f5761437e61445e565b5b80604052505050565b6000614393826142d9565b91507fffffffffffffffffffffffffffffffffffffffffffffffffffffffffffffffff8214156143c6576143c56143d1565b5b600182019050919050565b7f4e487b7100000000000000000000000000000000000000000000000000000000600052601160045260246000fd5b7f4e487b7100000000000000000000000000000000000000000000000000000000600052601260045260246000fd5b7f4e487b7100000000000000000000000000000000000000000000000000000000600052602260045260246000fd5b7f4e487b7100000000000000000000000000000000000000000000000000000000600052604160045260246000fd5b6000601f19601f8301169050919050565b7f4552433732313a2063616c6c6572206973206e6f7420746f6b656e206f776e6560008201527f72206f7220617070726f76656400000000000000000000000000000000000000602082015250565b7f546f6b656e20616c7265616479206d696e746564000000000000000000000000600082015250565b7f4552433732313a207472616e7366657220746f206e6f6e20455243373231526560008201527f63656976657220696d706c656d656e7465720000000000000000000000000000602082015250565b7f4f776e61626c653a206e6577206f776e657220697320746865207a65726f206160008201527f6464726573730000000000000000000000000000000000000000000000000000602082015250565b7f4552433732313a207472616e736665722066726f6d20696e636f72726563742060008201527f6f776e6572000000000000000000000000000000000000000000000000000000602082015250565b7f4552433732313a20746f6b656e20616c7265616479206d696e74656400000000600082015250565b7f436f6c6c656374696f6e20646f6573206e6f7420657869737400000000000000600082015250565b7f4552433732313a207472616e7366657220746f20746865207a65726f2061646460008201527f7265737300000000000000000000000000000000000000000000000000000000602082015250565b7f4552433732313a20617070726f766520746f2063616c6c657200000000000000600082015250565b7f546f6b656e20646f6573206e6f74206578697374000000000000000000000000600082015250565b7f4552433732313a2061646472657373207a65726f206973206e6f74206120766160008201527f6c6964206f776e65720000000000000000000000000000000000000000000000602082015250565b7f5469636b657420646f6573206e6f742065786973740000000000000000000000600082015250565b7f4f6e6c79207469636b6574206f776e65722063616e207472616e73666572207460008201527f69636b6574000000000000000000000000000000000000000000000000000000602082015250565b7f4552433732313a206d696e7420746f20746865207a65726f2061646472657373600082015250565b7f496e73756666696369656e74207061796d656e74000000000000000000000000600082015250565b7f546f6b656e206e6f7420666f756e6420696e20616e7920636f6c6c656374696f60008201527f6e00000000000000000000000000000000000000000000000000000000000000602082015250565b7f4f776e61626c653a2063616c6c6572206973206e6f7420746865206f776e6572600082015250565b7f4552433732313a20696e76616c696420746f6b656e2049440000000000000000600082015250565b7f4552433732313a20617070726f76616c20746f2063757272656e74206f776e6560008201527f7200000000000000000000000000000000000000000000000000000000000000602082015250565b7f43616e6e6f74207472616e7366657220746f207a65726f206164647265737300600082015250565b7f4552433732313a20617070726f76652063616c6c6572206973206e6f7420746f60008201527f6b656e206f776e6572206f7220617070726f76656420666f7220616c6c000000602082015250565b6149808161425d565b811461498b57600080fd5b50565b6149978161426f565b81146149a257600080fd5b50565b6149ae81614281565b81146149b957600080fd5b50565b6149c58161428d565b81146149d057600080fd5b50565b6149dc816142d9565b81146149e757600080fd5b5056fea264697066735822122012e815f2faff7f305f58a307a73d3250c209906957398a09a84d4ee97de922b564736f6c63430008010033",
  "linkReferences": {},
  "deployedLinkReferences": {}
}