{
  "_format": "hh-sol-artifact-1",
  "contractName": "MyToken",
  "sourceName": "contracts/MyToken.sol",
  "abi": [
    {
      "inputs": [],
      "stateMutability": "nonpayable",
      "type": "constructor"
    },
    {
      "anonymous": false,
      "inputs": [
        {
          "indexed": true,
          "internalType": "address",
          "name": "owner",
          "type": "address"
        },
        {
          "indexed": true,
          "internalType": "address",
          "name": "approved",
          "type": "address"
        },
        {
          "indexed": true,
          "internalType": "uint256",
          "name": "tokenId",
          "type": "uint256"
        }
      ],
      "name": "Approval",
      "type": "event"
    },
    {
      "anonymous": false,
      "inputs": [
        {
          "indexed": true,
          "internalType": "address",
          "name": "owner",
          "type": "address"
        },
        {
          "indexed": true,
          "internalType": "address",
          "name": "operator",
          "type": "address"
        },
        {
          "indexed": false,
          "internalType": "bool",
          "name": "approved",
          "type": "bool"
        }
      ],
      "name": "ApprovalForAll",
      "type": "event"
    },
    {
      "anonymous": false,
      "inputs": [
        {
          "indexed": true,
          "internalType": "address",
          "name": "previousOwner",
          "type": "address"
        },
        {
          "indexed": true,
          "internalType": "address",
          "name": "newOwner",
          "type": "address"
        }
      ],
      "name": "OwnershipTransferred",
      "type": "event"
    },
    {
      "anonymous": false,
      "inputs": [
        {
          "indexed": true,
          "internalType": "address",
          "name": "from",
          "type": "address"
        },
        {
          "indexed": true,
          "internalType": "address",
          "name": "to",
          "type": "address"
        },
        {
          "indexed": true,
          "internalType": "uint256",
          "name": "tokenId",
          "type": "uint256"
        }
      ],
      "name": "Transfer",
      "type": "event"
    },
    {
      "inputs": [
        {
          "internalType": "address",
          "name": "to",
          "type": "address"
        },
        {
          "internalType": "uint256",
          "name": "tokenId",
          "type": "uint256"
        }
      ],
      "name": "approve",
      "outputs": [],
      "stateMutability": "nonpayable",
      "type": "function"
    },
    {
      "inputs": [
        {
          "internalType": "address",
          "name": "owner",
          "type": "address"
        }
      ],
      "name": "balanceOf",
      "outputs": [
        {
          "internalType": "uint256",
          "name": "",
          "type": "uint256"
        }
      ],
      "stateMutability": "view",
      "type": "function"
    },
    {
      "inputs": [
        {
          "internalType": "string",
          "name": "name",
          "type": "string"
        },
        {
          "internalType": "string",
          "name": "place",
          "type": "string"
        },
        {
          "internalType": "string",
          "name": "date",
          "type": "string"
        },
        {
          "internalType": "uint256",
          "name": "ticketPrice",
          "type": "uint256"
        },
        {
          "internalType": "uint256",
          "name": "ticketCount",
          "type": "uint256"
        },
        {
          "internalType": "address",
          "name": "organizerAddress",
          "type": "address"
        }
      ],
      "name": "createCollection",
      "outputs": [],
      "stateMutability": "nonpayable",
      "type": "function"
    },
    {
      "inputs": [
        {
          "internalType": "uint256",
          "name": "tokenId",
          "type": "uint256"
        }
      ],
      "name": "exists",
      "outputs": [
        {
          "internalType": "bool",
          "name": "",
          "type": "bool"
        }
      ],
      "stateMutability": "view",
      "type": "function"
    },
    {
      "inputs": [
        {
          "internalType": "uint256",
          "name": "tokenId",
          "type": "uint256"
        }
      ],
      "name": "getApproved",
      "outputs": [
        {
          "internalType": "address",
          "name": "",
          "type": "address"
        }
      ],
      "stateMutability": "view",
      "type": "function"
    },
    {
      "inputs": [
        {
          "internalType": "uint256",
          "name": "collectionId",
          "type": "uint256"
        }
      ],
      "name": "getCollection",
      "outputs": [
        {
          "components": [
            {
              "internalType": "string",
              "name": "name",
              "type": "string"
            },
            {
              "internalType": "uint256[]",
              "name": "tokenIds",
              "type": "uint256[]"
            },
            {
              "internalType": "uint256",
              "name": "ticketCount",
              "type": "uint256"
            },
            {
              "internalType": "uint256",
              "name": "ticketSold",
              "type": "uint256"
            }
          ],
          "internalType": "struct MyToken.Collection",
          "name": "",
          "type": "tuple"
        }
      ],
      "stateMutability": "view",
      "type": "function"
    },
    {
      "inputs": [
        {
          "internalType": "uint256",
          "name": "tokenId",
          "type": "uint256"
        }
      ],
      "name": "getCollectionByTokenId",
      "outputs": [
        {
          "internalType": "uint256",
          "name": "",
          "type": "uint256"
        }
      ],
      "stateMutability": "view",
      "type": "function"
    },
    {
      "inputs": [],
      "name": "getCollectionCounter",
      "outputs": [
        {
          "internalType": "uint256",
          "name": "",
          "type": "uint256"
        }
      ],
      "stateMutability": "view",
      "type": "function"
    },
    {
      "inputs": [
        {
          "internalType": "address",
          "name": "organizer",
          "type": "address"
        }
      ],
      "name": "getCollectionsByOrganizer",
      "outputs": [
        {
          "components": [
            {
              "internalType": "string",
              "name": "name",
              "type": "string"
            },
            {
              "internalType": "uint256[]",
              "name": "tokenIds",
              "type": "uint256[]"
            },
            {
              "internalType": "uint256",
              "name": "ticketCount",
              "type": "uint256"
            },
            {
              "internalType": "uint256",
              "name": "ticketSold",
              "type": "uint256"
            }
          ],
          "internalType": "struct MyToken.Collection[]",
          "name": "",
          "type": "tuple[]"
        }
      ],
      "stateMutability": "view",
      "type": "function"
    },
    {
      "inputs": [
        {
          "internalType": "uint256",
          "name": "tokenId",
          "type": "uint256"
        }
      ],
      "name": "getTicketData",
      "outputs": [
        {
          "components": [
            {
              "internalType": "string",
              "name": "name",
              "type": "string"
            },
            {
              "internalType": "string",
              "name": "place",
              "type": "string"
            },
            {
              "internalType": "string",
              "name": "date",
              "type": "string"
            },
            {
              "internalType": "uint256",
              "name": "ticketPrice",
              "type": "uint256"
            },
            {
              "internalType": "uint256",
              "name": "ticketNumber",
              "type": "uint256"
            },
            {
              "internalType": "address",
              "name": "organizerAddress",
              "type": "address"
            },
            {
              "internalType": "bool",
              "name": "isSold",
              "type": "bool"
            }
          ],
          "internalType": "struct MyToken.TicketData",
          "name": "",
          "type": "tuple"
        }
      ],
      "stateMutability": "view",
      "type": "function"
    },
    {
      "inputs": [
        {
          "internalType": "address",
          "name": "owner",
          "type": "address"
        },
        {
          "internalType": "address",
          "name": "operator",
          "type": "address"
        }
      ],
      "name": "isApprovedForAll",
      "outputs": [
        {
          "internalType": "bool",
          "name": "",
          "type": "bool"
        }
      ],
      "stateMutability": "view",
      "type": "function"
    },
    {
      "inputs": [
        {
          "internalType": "uint256",
          "name": "collectionId",
          "type": "uint256"
        },
        {
          "internalType": "address",
          "name": "to",
          "type": "address"
        }
      ],
      "name": "mint",
      "outputs": [],
      "stateMutability": "nonpayable",
      "type": "function"
    },
    {
      "inputs": [],
      "name": "name",
      "outputs": [
        {
          "internalType": "string",
          "name": "",
          "type": "string"
        }
      ],
      "stateMutability": "view",
      "type": "function"
    },
    {
      "inputs": [],
      "name": "owner",
      "outputs": [
        {
          "internalType": "address",
          "name": "",
          "type": "address"
        }
      ],
      "stateMutability": "view",
      "type": "function"
    },
    {
      "inputs": [
        {
          "internalType": "uint256",
          "name": "tokenId",
          "type": "uint256"
        }
      ],
      "name": "ownerOf",
      "outputs": [
        {
          "internalType": "address",
          "name": "",
          "type": "address"
        }
      ],
      "stateMutability": "view",
      "type": "function"
    },
    {
      "inputs": [],
      "name": "renounceOwnership",
      "outputs": [],
      "stateMutability": "nonpayable",
      "type": "function"
    },
    {
      "inputs": [
        {
          "internalType": "address",
          "name": "from",
          "type": "address"
        },
        {
          "internalType": "address",
          "name": "to",
          "type": "address"
        },
        {
          "internalType": "uint256",
          "name": "tokenId",
          "type": "uint256"
        }
      ],
      "name": "safeTransferFrom",
      "outputs": [],
      "stateMutability": "nonpayable",
      "type": "function"
    },
    {
      "inputs": [
        {
          "internalType": "address",
          "name": "from",
          "type": "address"
        },
        {
          "internalType": "address",
          "name": "to",
          "type": "address"
        },
        {
          "internalType": "uint256",
          "name": "tokenId",
          "type": "uint256"
        },
        {
          "internalType": "bytes",
          "name": "data",
          "type": "bytes"
        }
      ],
      "name": "safeTransferFrom",
      "outputs": [],
      "stateMutability": "nonpayable",
      "type": "function"
    },
    {
      "inputs": [
        {
          "internalType": "address",
          "name": "operator",
          "type": "address"
        },
        {
          "internalType": "bool",
          "name": "approved",
          "type": "bool"
        }
      ],
      "name": "setApprovalForAll",
      "outputs": [],
      "stateMutability": "nonpayable",
      "type": "function"
    },
    {
      "inputs": [
        {
          "internalType": "bytes4",
          "name": "interfaceId",
          "type": "bytes4"
        }
      ],
      "name": "supportsInterface",
      "outputs": [
        {
          "internalType": "bool",
          "name": "",
          "type": "bool"
        }
      ],
      "stateMutability": "view",
      "type": "function"
    },
    {
      "inputs": [],
      "name": "symbol",
      "outputs": [
        {
          "internalType": "string",
          "name": "",
          "type": "string"
        }
      ],
      "stateMutability": "view",
      "type": "function"
    },
    {
      "inputs": [
        {
          "internalType": "uint256",
          "name": "tokenId",
          "type": "uint256"
        }
      ],
      "name": "tokenURI",
      "outputs": [
        {
          "internalType": "string",
          "name": "",
          "type": "string"
        }
      ],
      "stateMutability": "view",
      "type": "function"
    },
    {
      "inputs": [
        {
          "internalType": "address",
          "name": "from",
          "type": "address"
        },
        {
          "internalType": "address",
          "name": "to",
          "type": "address"
        },
        {
          "internalType": "uint256",
          "name": "tokenId",
          "type": "uint256"
        }
      ],
      "name": "transferFrom",
      "outputs": [],
      "stateMutability": "nonpayable",
      "type": "function"
    },
    {
      "inputs": [
        {
          "internalType": "address",
          "name": "newOwner",
          "type": "address"
        }
      ],
      "name": "transferOwnership",
      "outputs": [],
      "stateMutability": "nonpayable",
      "type": "function"
    },
    {
      "inputs": [
        {
          "internalType": "uint256",
          "name": "tokenId",
          "type": "uint256"
        },
        {
          "internalType": "address payable",
          "name": "to",
          "type": "address"
        },
        {
          "internalType": "uint256",
          "name": "feePercentage",
          "type": "uint256"
        }
      ],
      "name": "transferTicket",
      "outputs": [],
      "stateMutability": "payable",
      "type": "function"
    }
  ],
  "bytecode": "0x60806040523480156200001157600080fd5b506040518060400160405280600781526020017f4d79546f6b656e000000000000000000000000000000000000000000000000008152506040518060400160405280600381526020017f4d544b0000000000000000000000000000000000000000000000000000000000815250816000908051906020019062000096929190620001a6565b508060019080519060200190620000af929190620001a6565b505050620000d2620000c6620000d860201b60201c565b620000e060201b60201c565b620002bb565b600033905090565b6000600660009054906101000a900473ffffffffffffffffffffffffffffffffffffffff16905081600660006101000a81548173ffffffffffffffffffffffffffffffffffffffff021916908373ffffffffffffffffffffffffffffffffffffffff1602179055508173ffffffffffffffffffffffffffffffffffffffff168173ffffffffffffffffffffffffffffffffffffffff167f8be0079c531659141344cd1fd0a4f28419497f9722a3daafe3b4186f6b6457e060405160405180910390a35050565b828054620001b49062000256565b90600052602060002090601f016020900481019282620001d8576000855562000224565b82601f10620001f357805160ff191683800117855562000224565b8280016001018555821562000224579182015b828111156200022357825182559160200191906001019062000206565b5b50905062000233919062000237565b5090565b5b808211156200025257600081600090555060010162000238565b5090565b600060028204905060018216806200026f57607f821691505b602082108114156200028657620002856200028c565b5b50919050565b7f4e487b7100000000000000000000000000000000000000000000000000000000600052602260045260246000fd5b614b8e80620002cb6000396000f3fe6080604052600436106101665760003560e01c806370a08231116100d1578063a22cb4651161008a578063d9895e6a11610064578063d9895e6a14610572578063da6d790b146105af578063e985e9c5146105cb578063f2fde38b1461060857610166565b8063a22cb465146104e3578063b88d4fde1461050c578063c87b56dd1461053557610166565b806370a08231146103e5578063715018a614610422578063835b83aa146104395780638da5cb5b1461046457806394bf804d1461048f57806395d89b41146104b857610166565b806323b872dd1161012357806323b872dd146102b3578063313d82cf146102dc57806342842e0e146103055780634f558e791461032e5780635a1f3c281461036b5780636352211e146103a857610166565b806301ffc9a71461016b57806306fdde03146101a8578063081812fc146101d3578063095ea7b3146102105780630d88dd3614610239578063122532b714610276575b600080fd5b34801561017757600080fd5b50610192600480360381019061018d91906134ab565b610631565b60405161019f9190613de4565b60405180910390f35b3480156101b457600080fd5b506101bd610713565b6040516101ca9190613dff565b60405180910390f35b3480156101df57600080fd5b506101fa60048036038101906101f591906135ce565b6107a5565b6040516102079190613d5b565b60405180910390f35b34801561021c57600080fd5b506102376004803603810190610232919061346f565b6107eb565b005b34801561024557600080fd5b50610260600480360381019061025b91906135ce565b610903565b60405161026d9190614125565b60405180910390f35b34801561028257600080fd5b5061029d60048036038101906102989190613304565b610b51565b6040516102aa9190613dc2565b60405180910390f35b3480156102bf57600080fd5b506102da60048036038101906102d59190613369565b610f62565b005b3480156102e857600080fd5b5061030360048036038101906102fe91906134fd565b610fc2565b005b34801561031157600080fd5b5061032c60048036038101906103279190613369565b6112ac565b005b34801561033a57600080fd5b50610355600480360381019061035091906135ce565b6112cc565b6040516103629190613de4565b60405180910390f35b34801561037757600080fd5b50610392600480360381019061038d91906135ce565b6112de565b60405161039f91906140e1565b60405180910390f35b3480156103b457600080fd5b506103cf60048036038101906103ca91906135ce565b61146e565b6040516103dc9190613d5b565b60405180910390f35b3480156103f157600080fd5b5061040c60048036038101906104079190613304565b6114f5565b6040516104199190614125565b60405180910390f35b34801561042e57600080fd5b506104376115ad565b005b34801561044557600080fd5b5061044e6115c1565b60405161045b9190614125565b60405180910390f35b34801561047057600080fd5b506104796115d2565b6040516104869190613d5b565b60405180910390f35b34801561049b57600080fd5b506104b660048036038101906104b191906135f7565b6115fc565b005b3480156104c457600080fd5b506104cd611728565b6040516104da9190613dff565b60405180910390f35b3480156104ef57600080fd5b5061050a60048036038101906105059190613433565b6117ba565b005b34801561051857600080fd5b50610533600480360381019061052e91906133b8565b6117d0565b005b34801561054157600080fd5b5061055c600480360381019061055791906135ce565b611832565b6040516105699190613dff565b60405180910390f35b34801561057e57600080fd5b50610599600480360381019061059491906135ce565b61189a565b6040516105a69190614103565b60405180910390f35b6105c960048036038101906105c49190613633565b611b4a565b005b3480156105d757600080fd5b506105f260048036038101906105ed919061332d565b611eae565b6040516105ff9190613de4565b60405180910390f35b34801561061457600080fd5b5061062f600480360381019061062a9190613304565b611f42565b005b60007f80ac58cd000000000000000000000000000000000000000000000000000000007bffffffffffffffffffffffffffffffffffffffffffffffffffffffff1916827bffffffffffffffffffffffffffffffffffffffffffffffffffffffff191614806106fc57507f5b5e139f000000000000000000000000000000000000000000000000000000007bffffffffffffffffffffffffffffffffffffffffffffffffffffffff1916827bffffffffffffffffffffffffffffffffffffffffffffffffffffffff1916145b8061070c575061070b82611fc6565b5b9050919050565b6060600080546107229061446a565b80601f016020809104026020016040519081016040528092919081815260200182805461074e9061446a565b801561079b5780601f106107705761010080835404028352916020019161079b565b820191906000526020600020905b81548152906001019060200180831161077e57829003601f168201915b5050505050905090565b60006107b082612030565b6004600083815260200190815260200160002060009054906101000a900473ffffffffffffffffffffffffffffffffffffffff169050919050565b60006107f68261146e565b90508073ffffffffffffffffffffffffffffffffffffffff168373ffffffffffffffffffffffffffffffffffffffff161415610867576040517f08c379a000000000000000000000000000000000000000000000000000000000815260040161085e90614081565b60405180910390fd5b8073ffffffffffffffffffffffffffffffffffffffff1661088661207b565b73ffffffffffffffffffffffffffffffffffffffff1614806108b557506108b4816108af61207b565b611eae565b5b6108f4576040517f08c379a00000000000000000000000000000000000000000000000000000000081526004016108eb906140c1565b60405180910390fd5b6108fe8383612083565b505050565b600061090e8261213c565b61094d576040517f08c379a000000000000000000000000000000000000000000000000000000000815260040161094490613f61565b60405180910390fd5b60005b61095a600761217d565b811015610b10576000600960008381526020019081526020016000206040518060800160405290816000820180546109919061446a565b80601f01602080910402602001604051908101604052809291908181526020018280546109bd9061446a565b8015610a0a5780601f106109df57610100808354040283529160200191610a0a565b820191906000526020600020905b8154815290600101906020018083116109ed57829003601f168201915b5050505050815260200160018201805480602002602001604051908101604052809291908181526020018280548015610a6257602002820191906000526020600020905b815481526020019060010190808311610a4e575b5050505050815260200160028201548152602001600382015481525050905060005b816020015151811015610afb578482602001518281518110610acf577f4e487b7100000000000000000000000000000000000000000000000000000000600052603260045260246000fd5b60200260200101511415610ae857809350505050610b4c565b8080610af3906144cd565b915050610a84565b50508080610b08906144cd565b915050610950565b506040517f08c379a0000000000000000000000000000000000000000000000000000000008152600401610b4390614021565b60405180910390fd5b919050565b60606000610b5f600761217d565b90506000808267ffffffffffffffff811115610ba4577f4e487b7100000000000000000000000000000000000000000000000000000000600052604160045260246000fd5b604051908082528060200260200182016040528015610bdd57816020015b610bca613049565b815260200190600190039081610bc25790505b50905060005b83811015610e3357600060096000838152602001908152602001600020604051806080016040529081600082018054610c1b9061446a565b80601f0160208091040260200160405190810160405280929190818152602001828054610c479061446a565b8015610c945780601f10610c6957610100808354040283529160200191610c94565b820191906000526020600020905b815481529060010190602001808311610c7757829003601f168201915b5050505050815260200160018201805480602002602001604051908101604052809291908181526020018280548015610cec57602002820191906000526020600020905b815481526020019060010190808311610cd8575b505050505081526020016002820154815260200160038201548152505090506000816020015151118015610dc657508673ffffffffffffffffffffffffffffffffffffffff16600a60008360200151600081518110610d74577f4e487b7100000000000000000000000000000000000000000000000000000000600052603260045260246000fd5b6020026020010151815260200190815260200160002060050160009054906101000a900473ffffffffffffffffffffffffffffffffffffffff1673ffffffffffffffffffffffffffffffffffffffff16145b15610e1f5780838581518110610e05577f4e487b7100000000000000000000000000000000000000000000000000000000600052603260045260246000fd5b60200260200101819052508380610e1b906144cd565b9450505b508080610e2b906144cd565b915050610be3565b5060008267ffffffffffffffff811115610e76577f4e487b7100000000000000000000000000000000000000000000000000000000600052604160045260246000fd5b604051908082528060200260200182016040528015610eaf57816020015b610e9c613049565b815260200190600190039081610e945790505b50905060005b83811015610f5557828181518110610ef6577f4e487b7100000000000000000000000000000000000000000000000000000000600052603260045260246000fd5b6020026020010151828281518110610f37577f4e487b7100000000000000000000000000000000000000000000000000000000600052603260045260246000fd5b60200260200101819052508080610f4d906144cd565b915050610eb5565b5080945050505050919050565b610f73610f6d61207b565b8261218b565b610fb2576040517f08c379a0000000000000000000000000000000000000000000000000000000008152600401610fa990613e41565b60405180910390fd5b610fbd838383612220565b505050565b610fca61251a565b60005b828110156111975760006040518060e00160405280898152602001888152602001878152602001868152602001600184611007919061428d565b81526020018473ffffffffffffffffffffffffffffffffffffffff168152602001600015158152509050600061103d600861217d565b90506110496008612598565b61105333826125ae565b81600a60008381526020019081526020016000206000820151816000019080519060200190611083929190613071565b5060208201518160010190805190602001906110a0929190613071565b5060408201518160020190805190602001906110bd929190613071565b50606082015181600301556080820151816004015560a08201518160050160006101000a81548173ffffffffffffffffffffffffffffffffffffffff021916908373ffffffffffffffffffffffffffffffffffffffff16021790555060c08201518160050160146101000a81548160ff0219169083151502179055509050506009600061114a600761217d565b81526020019081526020016000206001018190806001815401808255809150506001900390600052602060002001600090919091909150555050808061118f906144cd565b915050610fcd565b5060006040518060800160405280888152602001600960006111b9600761217d565b815260200190815260200160002060010180548060200260200160405190810160405280929190818152602001828054801561121457602002820191906000526020600020905b815481526020019060010190808311611200575b5050505050815260200184815260200160008152509050806009600061123a600761217d565b81526020019081526020016000206000820151816000019080519060200190611264929190613071565b5060208201518160010190805190602001906112819291906130f7565b5060408201518160020155606082015181600301559050506112a36007612598565b50505050505050565b6112c7838383604051806020016040528060008152506117d0565b505050565b60006112d78261213c565b9050919050565b6112e6613049565b60006009600084815260200190815260200160002060000180546113099061446a565b90501161134b576040517f08c379a000000000000000000000000000000000000000000000000000000000815260040161134290613f01565b60405180910390fd5b600960008381526020019081526020016000206040518060800160405290816000820180546113799061446a565b80601f01602080910402602001604051908101604052809291908181526020018280546113a59061446a565b80156113f25780601f106113c7576101008083540402835291602001916113f2565b820191906000526020600020905b8154815290600101906020018083116113d557829003601f168201915b505050505081526020016001820180548060200260200160405190810160405280929190818152602001828054801561144a57602002820191906000526020600020905b815481526020019060010190808311611436575b50505050508152602001600282015481526020016003820154815250509050919050565b60008061147a836125cc565b9050600073ffffffffffffffffffffffffffffffffffffffff168173ffffffffffffffffffffffffffffffffffffffff1614156114ec576040517f08c379a00000000000000000000000000000000000000000000000000000000081526004016114e390614061565b60405180910390fd5b80915050919050565b60008073ffffffffffffffffffffffffffffffffffffffff168273ffffffffffffffffffffffffffffffffffffffff161415611566576040517f08c379a000000000000000000000000000000000000000000000000000000000815260040161155d90613f81565b60405180910390fd5b600360008373ffffffffffffffffffffffffffffffffffffffff1673ffffffffffffffffffffffffffffffffffffffff168152602001908152602001600020549050919050565b6115b561251a565b6115bf6000612609565b565b60006115cd600761217d565b905090565b6000600660009054906101000a900473ffffffffffffffffffffffffffffffffffffffff16905090565b61160461251a565b60006009600084815260200190815260200160002060000180546116279061446a565b905011611669576040517f08c379a000000000000000000000000000000000000000000000000000000000815260040161166090613f01565b60405180910390fd5b60006001611677600861217d565b611681919061428d565b90506000600a600083815260200190815260200160002060040154146116dc576040517f08c379a00000000000000000000000000000000000000000000000000000000081526004016116d390613e61565b60405180910390fd5b6116e682826125ae565b60096000848152602001908152602001600020600101819080600181540180825580915050600190039060005260206000200160009091909190915055505050565b6060600180546117379061446a565b80601f01602080910402602001604051908101604052809291908181526020018280546117639061446a565b80156117b05780601f10611785576101008083540402835291602001916117b0565b820191906000526020600020905b81548152906001019060200180831161179357829003601f168201915b5050505050905090565b6117cc6117c561207b565b83836126cf565b5050565b6117e16117db61207b565b8361218b565b611820576040517f08c379a000000000000000000000000000000000000000000000000000000000815260040161181790613e41565b60405180910390fd5b61182c8484848461283c565b50505050565b606061183d82612030565b6000611847612898565b905060008151116118675760405180602001604052806000815250611892565b80611871846128af565b604051602001611882929190613d37565b6040516020818303038152906040525b915050919050565b6118a2613144565b6118ab8261213c565b6118ea576040517f08c379a00000000000000000000000000000000000000000000000000000000081526004016118e190613fa1565b60405180910390fd5b600a60008381526020019081526020016000206040518060e00160405290816000820180546119189061446a565b80601f01602080910402602001604051908101604052809291908181526020018280546119449061446a565b80156119915780601f1061196657610100808354040283529160200191611991565b820191906000526020600020905b81548152906001019060200180831161197457829003601f168201915b505050505081526020016001820180546119aa9061446a565b80601f01602080910402602001604051908101604052809291908181526020018280546119d69061446a565b8015611a235780601f106119f857610100808354040283529160200191611a23565b820191906000526020600020905b815481529060010190602001808311611a0657829003601f168201915b50505050508152602001600282018054611a3c9061446a565b80601f0160208091040260200160405190810160405280929190818152602001828054611a689061446a565b8015611ab55780601f10611a8a57610100808354040283529160200191611ab5565b820191906000526020600020905b815481529060010190602001808311611a9857829003601f168201915b5050505050815260200160038201548152602001600482015481526020016005820160009054906101000a900473ffffffffffffffffffffffffffffffffffffffff1673ffffffffffffffffffffffffffffffffffffffff1673ffffffffffffffffffffffffffffffffffffffff1681526020016005820160149054906101000a900460ff1615151515815250509050919050565b611b538361213c565b611b92576040517f08c379a0000000000000000000000000000000000000000000000000000000008152600401611b8990613fa1565b60405180910390fd5b3373ffffffffffffffffffffffffffffffffffffffff16611bb28461146e565b73ffffffffffffffffffffffffffffffffffffffff1614611c08576040517f08c379a0000000000000000000000000000000000000000000000000000000008152600401611bff90613fc1565b60405180910390fd5b600073ffffffffffffffffffffffffffffffffffffffff168273ffffffffffffffffffffffffffffffffffffffff161415611c78576040517f08c379a0000000000000000000000000000000000000000000000000000000008152600401611c6f906140a1565b60405180910390fd5b600a600084815260200190815260200160002060030154341015611cd1576040517f08c379a0000000000000000000000000000000000000000000000000000000008152600401611cc890614001565b60405180910390fd5b600a600084815260200190815260200160002060050160149054906101000a900460ff1615611d35576040517f08c379a0000000000000000000000000000000000000000000000000000000008152600401611d2c90613e21565b60405180910390fd5b60006127108234611d469190614314565b611d5091906142e3565b905060008134611d60919061436e565b90506000600a600087815260200190815260200160002060050160009054906101000a900473ffffffffffffffffffffffffffffffffffffffff1690508073ffffffffffffffffffffffffffffffffffffffff166108fc839081150290604051600060405180830381858888f19350505050158015611de3573d6000803e3d6000fd5b506000611dee6115d2565b90508073ffffffffffffffffffffffffffffffffffffffff166108fc859081150290604051600060405180830381858888f19350505050158015611e36573d6000803e3d6000fd5b50611e42338789612220565b6001600a600089815260200190815260200160002060050160146101000a81548160ff02191690831515021790555060096000611e7e89610903565b81526020019081526020016000206003016000815480929190611ea0906144cd565b919050555050505050505050565b6000600560008473ffffffffffffffffffffffffffffffffffffffff1673ffffffffffffffffffffffffffffffffffffffff16815260200190815260200160002060008373ffffffffffffffffffffffffffffffffffffffff1673ffffffffffffffffffffffffffffffffffffffff16815260200190815260200160002060009054906101000a900460ff16905092915050565b611f4a61251a565b600073ffffffffffffffffffffffffffffffffffffffff168173ffffffffffffffffffffffffffffffffffffffff161415611fba576040517f08c379a0000000000000000000000000000000000000000000000000000000008152600401611fb190613ea1565b60405180910390fd5b611fc381612609565b50565b60007f01ffc9a7000000000000000000000000000000000000000000000000000000007bffffffffffffffffffffffffffffffffffffffffffffffffffffffff1916827bffffffffffffffffffffffffffffffffffffffffffffffffffffffff1916149050919050565b6120398161213c565b612078576040517f08c379a000000000000000000000000000000000000000000000000000000000815260040161206f90614061565b60405180910390fd5b50565b600033905090565b816004600083815260200190815260200160002060006101000a81548173ffffffffffffffffffffffffffffffffffffffff021916908373ffffffffffffffffffffffffffffffffffffffff160217905550808273ffffffffffffffffffffffffffffffffffffffff166120f68361146e565b73ffffffffffffffffffffffffffffffffffffffff167f8c5be1e5ebec7d5bd14f71427d1e84f3dd0314c0f7b2291e5b200ac8c7c3b92560405160405180910390a45050565b60008073ffffffffffffffffffffffffffffffffffffffff1661215e836125cc565b73ffffffffffffffffffffffffffffffffffffffff1614159050919050565b600081600001549050919050565b6000806121978361146e565b90508073ffffffffffffffffffffffffffffffffffffffff168473ffffffffffffffffffffffffffffffffffffffff1614806121d957506121d88185611eae565b5b8061221757508373ffffffffffffffffffffffffffffffffffffffff166121ff846107a5565b73ffffffffffffffffffffffffffffffffffffffff16145b91505092915050565b8273ffffffffffffffffffffffffffffffffffffffff166122408261146e565b73ffffffffffffffffffffffffffffffffffffffff1614612296576040517f08c379a000000000000000000000000000000000000000000000000000000000815260040161228d90613ec1565b60405180910390fd5b600073ffffffffffffffffffffffffffffffffffffffff168273ffffffffffffffffffffffffffffffffffffffff161415612306576040517f08c379a00000000000000000000000000000000000000000000000000000000081526004016122fd90613f21565b60405180910390fd5b61231383838360016129d3565b8273ffffffffffffffffffffffffffffffffffffffff166123338261146e565b73ffffffffffffffffffffffffffffffffffffffff1614612389576040517f08c379a000000000000000000000000000000000000000000000000000000000815260040161238090613ec1565b60405180910390fd5b6004600082815260200190815260200160002060006101000a81549073ffffffffffffffffffffffffffffffffffffffff02191690556001600360008573ffffffffffffffffffffffffffffffffffffffff1673ffffffffffffffffffffffffffffffffffffffff168152602001908152602001600020600082825403925050819055506001600360008473ffffffffffffffffffffffffffffffffffffffff1673ffffffffffffffffffffffffffffffffffffffff16815260200190815260200160002060008282540192505081905550816002600083815260200190815260200160002060006101000a81548173ffffffffffffffffffffffffffffffffffffffff021916908373ffffffffffffffffffffffffffffffffffffffff160217905550808273ffffffffffffffffffffffffffffffffffffffff168473ffffffffffffffffffffffffffffffffffffffff167fddf252ad1be2c89b69c2b068fc378daa952ba7f163c4a11628f55a4df523b3ef60405160405180910390a461251583838360016129d9565b505050565b61252261207b565b73ffffffffffffffffffffffffffffffffffffffff166125406115d2565b73ffffffffffffffffffffffffffffffffffffffff1614612596576040517f08c379a000000000000000000000000000000000000000000000000000000000815260040161258d90614041565b60405180910390fd5b565b6001816000016000828254019250508190555050565b6125c88282604051806020016040528060008152506129df565b5050565b60006002600083815260200190815260200160002060009054906101000a900473ffffffffffffffffffffffffffffffffffffffff169050919050565b6000600660009054906101000a900473ffffffffffffffffffffffffffffffffffffffff16905081600660006101000a81548173ffffffffffffffffffffffffffffffffffffffff021916908373ffffffffffffffffffffffffffffffffffffffff1602179055508173ffffffffffffffffffffffffffffffffffffffff168173ffffffffffffffffffffffffffffffffffffffff167f8be0079c531659141344cd1fd0a4f28419497f9722a3daafe3b4186f6b6457e060405160405180910390a35050565b8173ffffffffffffffffffffffffffffffffffffffff168373ffffffffffffffffffffffffffffffffffffffff16141561273e576040517f08c379a000000000000000000000000000000000000000000000000000000000815260040161273590613f41565b60405180910390fd5b80600560008573ffffffffffffffffffffffffffffffffffffffff1673ffffffffffffffffffffffffffffffffffffffff16815260200190815260200160002060008473ffffffffffffffffffffffffffffffffffffffff1673ffffffffffffffffffffffffffffffffffffffff16815260200190815260200160002060006101000a81548160ff0219169083151502179055508173ffffffffffffffffffffffffffffffffffffffff168373ffffffffffffffffffffffffffffffffffffffff167f17307eab39ab6107e8899845ad3d59bd9653f200f220920489ca2b5937696c318360405161282f9190613de4565b60405180910390a3505050565b612847848484612220565b61285384848484612a3a565b612892576040517f08c379a000000000000000000000000000000000000000000000000000000000815260040161288990613e81565b60405180910390fd5b50505050565b606060405180602001604052806000815250905090565b6060600060016128be84612bd1565b01905060008167ffffffffffffffff811115612903577f4e487b7100000000000000000000000000000000000000000000000000000000600052604160045260246000fd5b6040519080825280601f01601f1916602001820160405280156129355781602001600182028036833780820191505090505b509050600082602001820190505b6001156129c8578080600190039150507f3031323334353637383961626364656600000000000000000000000000000000600a86061a8153600a85816129b2577f4e487b7100000000000000000000000000000000000000000000000000000000600052601260045260246000fd5b04945060008514156129c3576129c8565b612943565b819350505050919050565b50505050565b50505050565b6129e98383612e08565b6129f66000848484612a3a565b612a35576040517f08c379a0000000000000000000000000000000000000000000000000000000008152600401612a2c90613e81565b60405180910390fd5b505050565b6000612a5b8473ffffffffffffffffffffffffffffffffffffffff16613026565b15612bc4578373ffffffffffffffffffffffffffffffffffffffff1663150b7a02612a8461207b565b8786866040518563ffffffff1660e01b8152600401612aa69493929190613d76565b602060405180830381600087803b158015612ac057600080fd5b505af1925050508015612af157506040513d601f19601f82011682018060405250810190612aee91906134d4565b60015b612b74573d8060008114612b21576040519150601f19603f3d011682016040523d82523d6000602084013e612b26565b606091505b50600081511415612b6c576040517f08c379a0000000000000000000000000000000000000000000000000000000008152600401612b6390613e81565b60405180910390fd5b805181602001fd5b63150b7a0260e01b7bffffffffffffffffffffffffffffffffffffffffffffffffffffffff1916817bffffffffffffffffffffffffffffffffffffffffffffffffffffffff191614915050612bc9565b600190505b949350505050565b600080600090507a184f03e93ff9f4daa797ed6e38ed64bf6a1f0100000000000000008310612c55577a184f03e93ff9f4daa797ed6e38ed64bf6a1f0100000000000000008381612c4b577f4e487b7100000000000000000000000000000000000000000000000000000000600052601260045260246000fd5b0492506040810190505b6d04ee2d6d415b85acef81000000008310612cb8576d04ee2d6d415b85acef81000000008381612cae577f4e487b7100000000000000000000000000000000000000000000000000000000600052601260045260246000fd5b0492506020810190505b662386f26fc100008310612d0d57662386f26fc100008381612d03577f4e487b7100000000000000000000000000000000000000000000000000000000600052601260045260246000fd5b0492506010810190505b6305f5e1008310612d5c576305f5e1008381612d52577f4e487b7100000000000000000000000000000000000000000000000000000000600052601260045260246000fd5b0492506008810190505b6127108310612da7576127108381612d9d577f4e487b7100000000000000000000000000000000000000000000000000000000600052601260045260246000fd5b0492506004810190505b60648310612df05760648381612de6577f4e487b7100000000000000000000000000000000000000000000000000000000600052601260045260246000fd5b0492506002810190505b600a8310612dff576001810190505b80915050919050565b600073ffffffffffffffffffffffffffffffffffffffff168273ffffffffffffffffffffffffffffffffffffffff161415612e78576040517f08c379a0000000000000000000000000000000000000000000000000000000008152600401612e6f90613fe1565b60405180910390fd5b612e818161213c565b15612ec1576040517f08c379a0000000000000000000000000000000000000000000000000000000008152600401612eb890613ee1565b60405180910390fd5b612ecf6000838360016129d3565b612ed88161213c565b15612f18576040517f08c379a0000000000000000000000000000000000000000000000000000000008152600401612f0f90613ee1565b60405180910390fd5b6001600360008473ffffffffffffffffffffffffffffffffffffffff1673ffffffffffffffffffffffffffffffffffffffff16815260200190815260200160002060008282540192505081905550816002600083815260200190815260200160002060006101000a81548173ffffffffffffffffffffffffffffffffffffffff021916908373ffffffffffffffffffffffffffffffffffffffff160217905550808273ffffffffffffffffffffffffffffffffffffffff16600073ffffffffffffffffffffffffffffffffffffffff167fddf252ad1be2c89b69c2b068fc378daa952ba7f163c4a11628f55a4df523b3ef60405160405180910390a46130226000838360016129d9565b5050565b6000808273ffffffffffffffffffffffffffffffffffffffff163b119050919050565b6040518060800160405280606081526020016060815260200160008152602001600081525090565b82805461307d9061446a565b90600052602060002090601f01602090048101928261309f57600085556130e6565b82601f106130b857805160ff19168380011785556130e6565b828001600101855582156130e6579182015b828111156130e55782518255916020019190600101906130ca565b5b5090506130f39190613199565b5090565b828054828255906000526020600020908101928215613133579160200282015b82811115613132578251825591602001919060010190613117565b5b5090506131409190613199565b5090565b6040518060e001604052806060815260200160608152602001606081526020016000815260200160008152602001600073ffffffffffffffffffffffffffffffffffffffff1681526020016000151581525090565b5b808211156131b257600081600090555060010161319a565b5090565b60006131c96131c484614165565b614140565b9050828152602081018484840111156131e157600080fd5b6131ec848285614428565b509392505050565b600061320761320284614196565b614140565b90508281526020810184848401111561321f57600080fd5b61322a848285614428565b509392505050565b60008135905061324181614ae5565b92915050565b60008135905061325681614afc565b92915050565b60008135905061326b81614b13565b92915050565b60008135905061328081614b2a565b92915050565b60008151905061329581614b2a565b92915050565b600082601f8301126132ac57600080fd5b81356132bc8482602086016131b6565b91505092915050565b600082601f8301126132d657600080fd5b81356132e68482602086016131f4565b91505092915050565b6000813590506132fe81614b41565b92915050565b60006020828403121561331657600080fd5b600061332484828501613232565b91505092915050565b6000806040838503121561334057600080fd5b600061334e85828601613232565b925050602061335f85828601613232565b9150509250929050565b60008060006060848603121561337e57600080fd5b600061338c86828701613232565b935050602061339d86828701613232565b92505060406133ae868287016132ef565b9150509250925092565b600080600080608085870312156133ce57600080fd5b60006133dc87828801613232565b94505060206133ed87828801613232565b93505060406133fe878288016132ef565b925050606085013567ffffffffffffffff81111561341b57600080fd5b6134278782880161329b565b91505092959194509250565b6000806040838503121561344657600080fd5b600061345485828601613232565b92505060206134658582860161325c565b9150509250929050565b6000806040838503121561348257600080fd5b600061349085828601613232565b92505060206134a1858286016132ef565b9150509250929050565b6000602082840312156134bd57600080fd5b60006134cb84828501613271565b91505092915050565b6000602082840312156134e657600080fd5b60006134f484828501613286565b91505092915050565b60008060008060008060c0878903121561351657600080fd5b600087013567ffffffffffffffff81111561353057600080fd5b61353c89828a016132c5565b965050602087013567ffffffffffffffff81111561355957600080fd5b61356589828a016132c5565b955050604087013567ffffffffffffffff81111561358257600080fd5b61358e89828a016132c5565b945050606061359f89828a016132ef565b93505060806135b089828a016132ef565b92505060a06135c189828a01613232565b9150509295509295509295565b6000602082840312156135e057600080fd5b60006135ee848285016132ef565b91505092915050565b6000806040838503121561360a57600080fd5b6000613618858286016132ef565b925050602061362985828601613232565b9150509250929050565b60008060006060848603121561364857600080fd5b6000613656868287016132ef565b935050602061366786828701613247565b9250506040613678868287016132ef565b9150509250925092565b600061368e8383613b9b565b905092915050565b60006136a28383613d19565b60208301905092915050565b6136b7816143a2565b82525050565b6136c6816143a2565b82525050565b60006136d7826141e7565b6136e1818561422d565b9350836020820285016136f3856141c7565b8060005b8581101561372f57848403895281516137108582613682565b945061371b83614213565b925060208a019950506001810190506136f7565b50829750879550505050505092915050565b600061374c826141f2565b613756818561423e565b9350613761836141d7565b8060005b838110156137925781516137798882613696565b975061378483614220565b925050600181019050613765565b5085935050505092915050565b6137a8816143c6565b82525050565b6137b7816143c6565b82525050565b60006137c8826141fd565b6137d2818561424f565b93506137e2818560208601614437565b6137eb816145d2565b840191505092915050565b600061380182614208565b61380b8185614260565b935061381b818560208601614437565b613824816145d2565b840191505092915050565b600061383a82614208565b6138448185614271565b9350613854818560208601614437565b61385d816145d2565b840191505092915050565b600061387382614208565b61387d8185614282565b935061388d818560208601614437565b80840191505092915050565b60006138a6601683614271565b91506138b1826145e3565b602082019050919050565b60006138c9602d83614271565b91506138d48261460c565b604082019050919050565b60006138ec601483614271565b91506138f78261465b565b602082019050919050565b600061390f603283614271565b915061391a82614684565b604082019050919050565b6000613932602683614271565b915061393d826146d3565b604082019050919050565b6000613955602583614271565b915061396082614722565b604082019050919050565b6000613978601c83614271565b915061398382614771565b602082019050919050565b600061399b601983614271565b91506139a68261479a565b602082019050919050565b60006139be602483614271565b91506139c9826147c3565b604082019050919050565b60006139e1601983614271565b91506139ec82614812565b602082019050919050565b6000613a04601483614271565b9150613a0f8261483b565b602082019050919050565b6000613a27602983614271565b9150613a3282614864565b604082019050919050565b6000613a4a601583614271565b9150613a55826148b3565b602082019050919050565b6000613a6d602583614271565b9150613a78826148dc565b604082019050919050565b6000613a90602083614271565b9150613a9b8261492b565b602082019050919050565b6000613ab3601483614271565b9150613abe82614954565b602082019050919050565b6000613ad6602183614271565b9150613ae18261497d565b604082019050919050565b6000613af9602083614271565b9150613b04826149cc565b602082019050919050565b6000613b1c601883614271565b9150613b27826149f5565b602082019050919050565b6000613b3f602183614271565b9150613b4a82614a1e565b604082019050919050565b6000613b62601f83614271565b9150613b6d82614a6d565b602082019050919050565b6000613b85603d83614271565b9150613b9082614a96565b604082019050919050565b60006080830160008301518482036000860152613bb882826137f6565b91505060208301518482036020860152613bd28282613741565b9150506040830151613be76040860182613d19565b506060830151613bfa6060860182613d19565b508091505092915050565b60006080830160008301518482036000860152613c2282826137f6565b91505060208301518482036020860152613c3c8282613741565b9150506040830151613c516040860182613d19565b506060830151613c646060860182613d19565b508091505092915050565b600060e0830160008301518482036000860152613c8c82826137f6565b91505060208301518482036020860152613ca682826137f6565b91505060408301518482036040860152613cc082826137f6565b9150506060830151613cd56060860182613d19565b506080830151613ce86080860182613d19565b5060a0830151613cfb60a08601826136ae565b5060c0830151613d0e60c086018261379f565b508091505092915050565b613d228161441e565b82525050565b613d318161441e565b82525050565b6000613d438285613868565b9150613d4f8284613868565b91508190509392505050565b6000602082019050613d7060008301846136bd565b92915050565b6000608082019050613d8b60008301876136bd565b613d9860208301866136bd565b613da56040830185613d28565b8181036060830152613db781846137bd565b905095945050505050565b60006020820190508181036000830152613ddc81846136cc565b905092915050565b6000602082019050613df960008301846137ae565b92915050565b60006020820190508181036000830152613e19818461382f565b905092915050565b60006020820190508181036000830152613e3a81613899565b9050919050565b60006020820190508181036000830152613e5a816138bc565b9050919050565b60006020820190508181036000830152613e7a816138df565b9050919050565b60006020820190508181036000830152613e9a81613902565b9050919050565b60006020820190508181036000830152613eba81613925565b9050919050565b60006020820190508181036000830152613eda81613948565b9050919050565b60006020820190508181036000830152613efa8161396b565b9050919050565b60006020820190508181036000830152613f1a8161398e565b9050919050565b60006020820190508181036000830152613f3a816139b1565b9050919050565b60006020820190508181036000830152613f5a816139d4565b9050919050565b60006020820190508181036000830152613f7a816139f7565b9050919050565b60006020820190508181036000830152613f9a81613a1a565b9050919050565b60006020820190508181036000830152613fba81613a3d565b9050919050565b60006020820190508181036000830152613fda81613a60565b9050919050565b60006020820190508181036000830152613ffa81613a83565b9050919050565b6000602082019050818103600083015261401a81613aa6565b9050919050565b6000602082019050818103600083015261403a81613ac9565b9050919050565b6000602082019050818103600083015261405a81613aec565b9050919050565b6000602082019050818103600083015261407a81613b0f565b9050919050565b6000602082019050818103600083015261409a81613b32565b9050919050565b600060208201905081810360008301526140ba81613b55565b9050919050565b600060208201905081810360008301526140da81613b78565b9050919050565b600060208201905081810360008301526140fb8184613c05565b905092915050565b6000602082019050818103600083015261411d8184613c6f565b905092915050565b600060208201905061413a6000830184613d28565b92915050565b600061414a61415b565b9050614156828261449c565b919050565b6000604051905090565b600067ffffffffffffffff8211156141805761417f6145a3565b5b614189826145d2565b9050602081019050919050565b600067ffffffffffffffff8211156141b1576141b06145a3565b5b6141ba826145d2565b9050602081019050919050565b6000819050602082019050919050565b6000819050602082019050919050565b600081519050919050565b600081519050919050565b600081519050919050565b600081519050919050565b6000602082019050919050565b6000602082019050919050565b600082825260208201905092915050565b600082825260208201905092915050565b600082825260208201905092915050565b600082825260208201905092915050565b600082825260208201905092915050565b600081905092915050565b60006142988261441e565b91506142a38361441e565b9250827fffffffffffffffffffffffffffffffffffffffffffffffffffffffffffffffff038211156142d8576142d7614516565b5b828201905092915050565b60006142ee8261441e565b91506142f98361441e565b92508261430957614308614545565b5b828204905092915050565b600061431f8261441e565b915061432a8361441e565b9250817fffffffffffffffffffffffffffffffffffffffffffffffffffffffffffffffff048311821515161561436357614362614516565b5b828202905092915050565b60006143798261441e565b91506143848361441e565b92508282101561439757614396614516565b5b828203905092915050565b60006143ad826143fe565b9050919050565b60006143bf826143fe565b9050919050565b60008115159050919050565b60007fffffffff0000000000000000000000000000000000000000000000000000000082169050919050565b600073ffffffffffffffffffffffffffffffffffffffff82169050919050565b6000819050919050565b82818337600083830152505050565b60005b8381101561445557808201518184015260208101905061443a565b83811115614464576000848401525b50505050565b6000600282049050600182168061448257607f821691505b6020821081141561449657614495614574565b5b50919050565b6144a5826145d2565b810181811067ffffffffffffffff821117156144c4576144c36145a3565b5b80604052505050565b60006144d88261441e565b91507fffffffffffffffffffffffffffffffffffffffffffffffffffffffffffffffff82141561450b5761450a614516565b5b600182019050919050565b7f4e487b7100000000000000000000000000000000000000000000000000000000600052601160045260246000fd5b7f4e487b7100000000000000000000000000000000000000000000000000000000600052601260045260246000fd5b7f4e487b7100000000000000000000000000000000000000000000000000000000600052602260045260246000fd5b7f4e487b7100000000000000000000000000000000000000000000000000000000600052604160045260246000fd5b6000601f19601f8301169050919050565b7f7469636b657420697320616c726561647920736f6c6400000000000000000000600082015250565b7f4552433732313a2063616c6c6572206973206e6f7420746f6b656e206f776e6560008201527f72206f7220617070726f76656400000000000000000000000000000000000000602082015250565b7f546f6b656e20616c7265616479206d696e746564000000000000000000000000600082015250565b7f4552433732313a207472616e7366657220746f206e6f6e20455243373231526560008201527f63656976657220696d706c656d656e7465720000000000000000000000000000602082015250565b7f4f776e61626c653a206e6577206f776e657220697320746865207a65726f206160008201527f6464726573730000000000000000000000000000000000000000000000000000602082015250565b7f4552433732313a207472616e736665722066726f6d20696e636f72726563742060008201527f6f776e6572000000000000000000000000000000000000000000000000000000602082015250565b7f4552433732313a20746f6b656e20616c7265616479206d696e74656400000000600082015250565b7f436f6c6c656374696f6e20646f6573206e6f7420657869737400000000000000600082015250565b7f4552433732313a207472616e7366657220746f20746865207a65726f2061646460008201527f7265737300000000000000000000000000000000000000000000000000000000602082015250565b7f4552433732313a20617070726f766520746f2063616c6c657200000000000000600082015250565b7f546f6b656e20646f6573206e6f74206578697374000000000000000000000000600082015250565b7f4552433732313a2061646472657373207a65726f206973206e6f74206120766160008201527f6c6964206f776e65720000000000000000000000000000000000000000000000602082015250565b7f5469636b657420646f6573206e6f742065786973740000000000000000000000600082015250565b7f4f6e6c79207469636b6574206f776e65722063616e207472616e73666572207460008201527f69636b6574000000000000000000000000000000000000000000000000000000602082015250565b7f4552433732313a206d696e7420746f20746865207a65726f2061646472657373600082015250565b7f496e73756666696369656e74207061796d656e74000000000000000000000000600082015250565b7f546f6b656e206e6f7420666f756e6420696e20616e7920636f6c6c656374696f60008201527f6e00000000000000000000000000000000000000000000000000000000000000602082015250565b7f4f776e61626c653a2063616c6c6572206973206e6f7420746865206f776e6572600082015250565b7f4552433732313a20696e76616c696420746f6b656e2049440000000000000000600082015250565b7f4552433732313a20617070726f76616c20746f2063757272656e74206f776e6560008201527f7200000000000000000000000000000000000000000000000000000000000000602082015250565b7f43616e6e6f74207472616e7366657220746f207a65726f206164647265737300600082015250565b7f4552433732313a20617070726f76652063616c6c6572206973206e6f7420746f60008201527f6b656e206f776e6572206f7220617070726f76656420666f7220616c6c000000602082015250565b614aee816143a2565b8114614af957600080fd5b50565b614b05816143b4565b8114614b1057600080fd5b50565b614b1c816143c6565b8114614b2757600080fd5b50565b614b33816143d2565b8114614b3e57600080fd5b50565b614b4a8161441e565b8114614b5557600080fd5b5056fea2646970667358221220d73f0e66d7b47be054f209c8b2eb99d87845aec420a693474c4879ddff52b2a864736f6c63430008010033",
  "linkReferences": {},
  "deployedLinkReferences": {}
}